:020000040000FA
:1000000018F09FE518F09FE518F09FE518F09FE5C0
:1000100018F09FE50000A0E1F0FF1FE518F09FE554
:1000200058000000400000001818000048000000C0
:100030004C000000000000005000000054000000D0
:10004000FEFFFFEAFEFFFFEAFEFFFFEAFEFFFFEA18
:10005000FEFFFFEAFEFFFFEA94009FE5AA10A0E37F
:100060005520A0E32430A0E3043080E50130A0E374
:10007000003080E50C1080E50C2080E5083090E52C
:10008000013B13E2FCFFFF0A0330A0E3003080E5F0
:100090000C1080E50C2080E558009FE50410A0E3DB
:1000A000041080E50210A0E3001080E548009FE501
:1000B000DBF021E300D0A0E1080040E2D7F021E32B
:1000C00000D0A0E1080040E2D1F021E300D0A0E19F
:1000D000080040E2D2F021E300D0A0E1030C40E2AE
:1000E000D3F021E300D0A0E1030C40E20C009FE537
:1000F00010FF2FE180C01FE000C01FE0981F0040EC
:1001000004010000000000EB2E0000EB2C008FE249
:10011000000C90E800A08AE000B08BE001704AE299
:100120000B005AE10000001A260000EB0F00BAE8AD
:1001300018E04FE2010013E303F0471013FF2FE133
:1001400084180000A4180000102052E27800B028A3
:100150007800A128FBFFFF8A822EB0E13000B02892
:100160003000A12800409045004081451EFF2FE14E
:100170000030B0E30040B0E30050B0E30060B0E313
:10018000102052E27800A128FCFFFF8A822EB0E105
:100190003000A128003081451EFF2FE101C08FE211
:1001A0001CFF2FE11FB5059886460FBC009C02B0CE
:1001B0007047000001C08FE21CFF2FE130B475468C
:1001C000AE4630BC704700005F0500EB0210A0E1B6
:1001D000F1FFFFEB1CC09FE50FC08CE001001CE3AA
:1001E0000DE08F120FE0A0011CFF2FE101C08FE294
:1001F0001CFF2FE101F0DAFA630000007847C046E7
:1002000003002DE9EAFFFFEB0300BDE86C0500EBFE
:100210000C009FE50C109FE504209FE508309FE54A
:100220001EFF2FE178190040801C00407819004023
:100230000E4B43431A00002100E0491C9142FCD3BD
:10024000704700F05CF80FE0002000F011F8002487
:1002500008E0012000F00CF87D20FFF7E9FF601CAA
:100260000406240E042CF4DBEEE70000E02E000070
:10027000002806D0012813D0022820D003283CD122
:100280002CE06849096901221204114203D01100CF
:10029000644AD16103E001210904624A51612CE002
:1002A0006049096901225204114203D011005D4ADC
:1002B000D16103E0012149045A4A51611DE05949C5
:1002C000096901229204114203D01100554AD161FB
:1002D00003E001218904534A51610EE05149096943
:1002E0000122D204114203D011004E4AD16103E031
:1002F0000121C9044B4A5161C046C04670470F20D6
:1003000000044849886101200004486170470028C2
:1003100006D0012809D002280CD0032814D10EE001
:10032000012109043F4A51610EE0012149043D4A7F
:10033000516109E0012189043A4A516104E0012137
:10034000C904384A5161C046C0467047002806D0EB
:10035000012809D002280CD0032814D10EE0012175
:100360000904304AD1610EE0012149042D4AD161CE
:1003700009E0012189042B4AD16104E00121C9046B
:10038000284AD161C046C04670470F210904254A5A
:10039000D161002806D0012809D002280CD00328FA
:1003A00014D10EE0012109041E4A51610EE0012121
:1003B00049041C4A516109E001218904194A51612B
:1003C00004E00121C904174A5161C046C046704784
:1003D00000B50300002B02D0012B0CD105E0124820
:1003E0000068401C1049086006E00F480068401E85
:1003F0000D49086000E0C046C0460B4909788807EF
:10040000800FFFF7C2FF08BC184700B50020FFF7B8
:10041000DFFF08BC184700B50120FFF7D9FF08BC73
:1004200018470000008002E00000004010B50024E2
:1004300006E014216143FC4A881800F0E9FF641CBF
:10044000042CF6D3F94800F0E3FFF94800F0E0FF90
:10045000F84800F0DDFFF84800F0DAFFF74800F058
:10046000D7FFF248F6490860F148F649086010BC29
:1004700008BC184710B5040001F07DF8F248006888
:10048000401CF1490860F1480068002808D1EF4895
:1004900004600800006801280ED1FFF7C7FF0BE0D9
:1004A000EB480068002807D1E8480068C06AE16AA4
:1004B000884201D8E5480460E6480068401CE549E8
:1004C0000860E549E06A0968884202D9E249E06AC1
:1004D00008601422E16A5143D34A8818211D00F0B4
:1004E000A7FF01F053F8DA480068002807D0D74882
:1004F0000068C06AE16A884201D201F037FA10BC94
:1005000008BC1847FFB581B00E000A9F0C9C216BF8
:100510000398401E8000081800900098C008C00092
:100520000090002E11D0002508E0715D20003430CD
:100530004155705D002800D102E06D1C082DF4D3F8
:10054000C04600213B20015502E000213420015526
:10055000042F00D30327E762201D00F066FF200070
:10056000183000F062FF24610420C01BA0616462A7
:100570000021E16340200155049A684603C800F059
:1005800093FF20600B98002801D00B98046005B001
:10059000F0BC08BC1847FFB585B01700B80001F0E3
:1005A00042F80600002E0BD0442001F03CF8040075
:1005B000002C01D0266304E0300001F094F800E044
:1005C0000024002C10D000220EA803C86B4613C3D1
:1005D00003923A00089B05A803C8FFF793FF200089
:1005E000FFF748FF012501E00025ED43280009B091
:1005F000F0BC08BC1847924800680068002801D188
:10060000012000E00020002804D00020C0439349CE
:10061000086005E08A480068C06800688F49086083
:10062000704710B50400206B01F05DF8200001F068
:100630005AF810BC08BC184770B5050000F09BFFC5
:10064000002D02D18148006800E028000400201D30
:1006500000F015FFA06A002803D02000183000F039
:100660000EFF7C480068401C7A49086077480068A3
:10067000844209D1211D704800F0DAFE78480068F4
:10068000401C7749086009E06F480068401E6E49C9
:1006900008602000FFF7C5FFFFF7ADFF00F076FF11
:1006A0006B480068002805D068480068844201D182
:1006B00001F05CF970BC08BC1847F8B50020009048
:1006C0006848006800286AD167480068451C664889
:1006D0000560002D0FD15A4807685A4800685849EC
:1006E00008605848076061480068401C5F4908601E
:1006F000FFF781FFC0465948006885423DD3C04698
:100700004F4800680068002801D1012000E0002067
:10071000002804D00020C043504908602CE048481D
:100720000068C068C4686668B54202D24B4806607B
:1007300022E0201D00F0A3FEA06A002803D02000C4
:10074000183000F09CFE4449E06A0968884202D9EA
:100750004149E06A08601422E16A5143324A88182C
:10076000211D00F065FE3949E06A0968C96A8842BE
:10077000C6D301200090C3E7C04634480068C06A71
:100780001421484328490858012801D90120009024
:1007900037480068002801D00120009004E0354867
:1007A0000068401C334908600098F8BC08BC184732
:1007B00070B50024002600F0DEFE2A480068401EC6
:1007C0002849086008000068002875D11E480068A4
:1007D000002871D022E01748C068C4682000183093
:1007E00000F04DFE201D00F04AFE1B49E06A09683A
:1007F000884202D91849E06A08601422E16A51432C
:10080000094A8818211D00F013FE1049E06A0968A2
:10081000C96A884202D3012015490860054800686A
:10082000002829D1012028E060000040B0000040ED
:10083000C4000040D8000040EC000040000100402F
:100840003C000040400000400C000040040000401C
:100850001800004028000040140000402C00004018
:100860000800004038000040100000402400004014
:10087000200000401C00004000200028ABD0002CCD
:1008800001D0FFF7B8FEFE480568002D0DD0C04628
:10089000FFF713FF002802D00120FA4908606D1EFF
:1008A000002DF5D10020F6490860F64800680028C0
:1008B00002D0012601F05AF800F068FE300070BC4A
:1008C00008BC1847F8B505000E00EF480768EF4868
:1008D0000068001D00F0D3FD681C08D1002E06D072
:1008E000EA480168091DEA4800F0A2FD1AE07C19F7
:1008F000E64800684460BC4207D2E4480168091D2C
:10090000E448006800F0A0FD0CE0E0480168091D23
:10091000E148006800F098FDE0480068844201D298
:10092000DE480460F8BC08BC1847DD480068401C7D
:10093000DB4908607047F3B581B0040000200090E7
:10094000FFF7F3FFD0480668216802980D18206869
:10095000B04207D92068A8420BD9B54209D9012075
:10096000009006E02068A84201D8B54201D90120D4
:10097000009025600098002803D0A81B0021FFF7F5
:10098000A1FFFFF715FF0700002F01D100F0EEFFD8
:100990000098FEBC08BC184770B504000025002C68
:1009A00008D0FFF7C2FF00212000FFF78BFFFFF701
:1009B000FFFE0500002D01D100F0D8FF70BC08BC7F
:1009C000184770B5040000F0D6FD002C02D1AF48E6
:1009D000006800E020000600F56A00F0D7FD28005E
:1009E00070BC08BC184710B401000023002902D1D4
:1009F000A64C246800E00C002200D06A10BC7047AE
:100A0000FEB507000D0000200090042D00D3032543
:100A100000F0B1FD002F02D19C48006800E03800D2
:100A20000400E66AAE4243D0B5420BD9974800684D
:100A300084420DD095480068C06AA84208D80120B9
:100A4000009005E091480068844201D101200090A7
:100A5000E06A0190E562A069C00FC00702D10420DE
:100A6000401BA06161691422019850438D4A80188F
:100A7000814201D1012000E00020002812D0201D79
:100A800000F0FDFC8849E06A0968884202D986497D
:100A9000E06A08601422E16A5143824A8818211DE5
:100AA00000F0C6FC0098002801D000F05FFFC046AF
:100AB00000F06CFDFEBC08BC1847794800680028AF
:100AC00003D001206F49086027E000206D490860CD
:100AD0007548016800E0491E14204843714A1058C7
:100AE000002801D1012000E000200028F3D11422C9
:100AF0004A436C4BD0184268526842600200083288
:100B00004368934202D14268526842604268D268A8
:100B10005E4B1A6064480160C046704770B50500BE
:100B200000F029FD002D02D15848006800E028009F
:100B30000400201D00F0A3FCA06A002803D02000C0
:100B4000183000F09CFC211D514800F071FC002081
:100B500009E021004031095C012903D10022210074
:100B600040310A54401C0128F3DB00F00FFD4F48D0
:100B70000068002805D000F0FEFCFFF73CFD00F007
:100B800005FD42480068844212D1484800680028A8
:100B900002D000F0EBFE0BE03D48006844490968D4
:100BA000884203D100203949086001E0FFF785FF42
:100BB00070BC08BC184710B4010000200A00344C77
:100BC0005369A34201D1012300E00023002B11D07F
:100BD000384C936AA34201D1012300E00023002B8B
:100BE00008D1936A002B01D1012300E00023002BE0
:100BF00000D0012010BC704770B505002C002348C0
:100C00000068844225D0002C23D000F0B4FC2000E2
:100C1000FFF7D1FF00281AD0201D00F030FC224938
:100C2000E06A0968884202D91F49E06A0860142214
:100C3000E16A51431B4A8818211D00F0F9FB134952
:100C4000E06A0968C96A884201D300F08FFE00F0AB
:100C50009DFC70BC08BC1847F8B5050000262C00A8
:100C600000272000FFF7A7FF002843D00C480068AA
:100C700000283AD10549E06A0968C96A88421BE040
:100C80001C00004020000040100000400400004014
:100C900000010040400000403C0000402C000040AB
:100CA0003800004060000040140000401800004080
:100CB0000C000040D800004003D301260120F74972
:100CC0000860201D00F0DBFBF549E06A09688842F6
:100CD00002D9F349E06A08601422E16A5143F14AFB
:100CE0008818211D00F0A4FB04E021001831EE4813
:100CF00000F09EFB3000F8BC08BC184710B516E0A9
:100D000000F039FCE948C068C468201D00F0B7FB5A
:100D1000E7480068401EE6490860E6480068401E53
:100D2000E449086000F032FC2000FFF77AFCE1485B
:100D300000680028E4D110BC08BC1847C046FFF783
:100D4000DDFFD84800680128F9D900F00FFEF6E76A
:100D50001CB5D94800210B005A2200910190D7A15F
:100D6000D848FFF718FC0400012C0CD100F002FE5B
:100D7000A01ED54908600120D44908600020D4494C
:100D8000086000F0EEFBD34800681CBC08BC1847A4
:100D900010B500F0EFFD0020CC49086000F0EAFB40
:100DA00010BC08BC184710B500F0E5FBC848046843
:100DB00000F0ECFB200010BC08BC18470021C44A1E
:100DC00010687047BA48006870470100002902D1D6
:100DD000C148006800E0080002001000343070478D
:100DE00070B50400FFF7A1FDBC4800680019BB49BD
:100DF0000860FFF7DDFC0500280070BC08BC184740
:100E000070B505000C00B44801681831280000F0E6
:100E10001BFB01212000FFF755FD70BC08BC1847E3
:100E200070B506000C0015000120C0072043AA4938
:100E300009688861A84801681831300000F0F8FAA4
:100E400001212800FFF73EFD70BC08BC184770B5B3
:100E50000600F068C4682000183000F010FBA048BD
:100E60000068002813D1201D00F009FB8C49E06ABE
:100E70000968884202D98A49E06A08601422E16A56
:100E80005143884A8818211D00F0D2FA04E021005D
:100E90001831854800F0CCFA8F49E06A0968C96AC0
:100EA000884204D9012501207C49086000E0002522
:100EB000280070BC08BC184770B505000E00012062
:100EC000C00730432860EC68280000F0D8FA201DE5
:100ED00000F0D5FA7249E06A0968884202D970497F
:100EE000E06A08601422E16A51436E4A8818211DA5
:100EF00000F09EFA7849E06A0968C96A884202D916
:100F000001206649086070BC08BC184710B5040091
:100F100000F031FB7348006820606D480068606035
:100F200000F034FB10BC08BC18476E49096801602A
:100F3000674909684160704770B506000C0000F011
:100F40001AFB634802687068131A2068401C01D1BC
:100F5000002519E0634930680968884206D0706846
:100F6000904203D80125002020600DE020689842BF
:100F700007D92068C01A20603000FFF7D6FF00258F
:100F800002E000202060012500F000FB280070BC7A
:100F900008BC184701204149086070474E4909685C
:100FA00088694D490968C96A0422511A4A4A126877
:100FB00091617047F8B504000F00160000F0DBFAED
:100FC000A100454800683C30405800280BD1012161
:100FD0004148006840300155002E04D03000FFF732
:100FE00071FC00F0C3FC00F0D1FA00F0C4FAA100DB
:100FF000394800683C304558002D0ED0002F06D0EF
:101000000021A200344800683C30815005E0681E91
:10101000A200314909683C31885000212E480068FF
:101020004030015500F0B2FA2800F8BC08BC18475F
:10103000FFB581B004000F001D0000F09CFA2648A7
:1010400000684030005D022814D0A20022490968DF
:101050003C3150180168B943016001211E48006805
:10106000403001550A98002804D00A98FFF72AFC5E
:1010700000F07CFC00F08AFA00F07DFA002D05D02B
:10108000A100154800683C304058286012480068AC
:101090004030005D022827D000262FE020000040CD
:1010A0001400004060000040D8000040EC00004008
:1010B0000C000040080000403000004049444C450E
:1010C000000000003D0D00002C0000401800004012
:1010D0001000004034000040040000401C000040AC
:1010E0003800004024000040A200C34909683C3198
:1010F0005018026803998A43026001260021BE4805
:1011000000684030015500F041FA300005B0F0BCF5
:1011100008BC1847FFB583B00D0016001F00012062
:101120000290039C00F027FA0C98002805D0A90033
:1011300020003C3041580C98016020004030405D58
:10114000019002212000403041553B0000F028FC76
:101150000528040E181D2900A90020003C30405825
:101160003043AA0021003C3188501BE0A900200038
:101170003C304058401CAA0021003C31885011E00E
:10118000A90020003C3046500CE00198022804D011
:10119000A90020003C30465001E00020029001E010
:1011A00000E0C046C046019801281AD1201D00F079
:1011B00066F99249E06A0968884202D98F49E06A73
:1011C00008601422E16A51438D4A8818211D00F0FD
:1011D0002FF98949E06A0968C96A884201D900F093
:1011E000C5FB00F0D3F9029807B0F0BC08BC184763
:1011F000FFB583B00D0016001F0001200190039C75
:10120000002000900C98002805D0A90020003C3058
:1012100041580C98016020004030405D029002214E
:101220002000403041553B0000F0BAFB0528040E79
:10123000181D2900A90020003C3040583043AA0066
:1012400021003C3188501BE0A90020003C30405870
:10125000401CAA0021003C31885011E0A900200068
:101260003C3046500CE00298022804D0A90020002F
:101270003C30465001E00020019001E000E0C04613
:10128000C046029801282BD15E480068002813D17F
:10129000201D00F0F4F85949E06A0968884202D933
:1012A0005649E06A08601422E16A5143544A88189A
:1012B000211D00F0BDF804E021001831524800F073
:1012C000B7F84D49E06A0968C96A884208D90D989B
:1012D000002802D001210D98016001204B490860CF
:1012E000019807B0F0BC08BC1847FEB505000E0019
:1012F00017002C000020009020004030805D0190FD
:101300000221200040308155B100001F4058401C90
:10131000B20021003C3188500198012829D1394878
:101320000068002813D1201D00F0A9F83349E06AB5
:101330000968884202D93149E06A08601422E16AEA
:1013400051432F4A8818211D00F072F804E0210053
:1013500018312D4800F06CF82749E06A0968C96A1D
:10136000884206D9002F01D001203860012027498A
:101370000860FEBC08BC1847F8B506000C00002E3B
:1013800002D11D48006800E03000070000F0F3F8CB
:1013900038004030005D022805D10021380040307F
:1013A0000155012500E0002500F0F0F82800F8BC08
:1013B00008BC1847F8B506000C001700002E02D133
:1013C0000D48006800E03000050000F0D4F8A100EE
:1013D00028003C3040580090A10028003C30405884
:1013E000B843A20029003C31885000F0CFF80098A3
:1013F000F8BC08BC1847000004000040140000407E
:101400006000004038000040D8000040200000404C
:101410000100083141600021C943816001000831A9
:10142000C1600161002101607047002101617047C6
:1014300042684A6093688B60936859609160086164
:1014400003685B1C0360704710B402000B685C1CEF
:1014500001D1106907E01000083000E040684468DE
:1014600024689C42FAD944684C604C68A16088604A
:1014700041600A611468641C146010BC704701006C
:101480000A694B6888689860081D09C858605068E8
:10149000884201D188685060002008611068401EB1
:1014A000106010687047000030B40300001F0C1D6E
:1014B0000460001F3F4C0460001F0360001F3E4C8F
:1014C0000460001F3D4C0460001F3D4C0460001F81
:1014D0003C4C0460001F3C4C0460001F3B4C04600B
:1014E000001F3B4C0460001F3A4C0460001F3A4C44
:1014F0000460001F394C0460001F394C0460001F59
:1015000064100460001F0260001F1F240460CC07E9
:10151000E40F03D0202504682C430460001F00243E
:10152000046030BC704700212E4AD1602E48110063
:101530008861032151615114C968102291432B4ADB
:10154000D1601100096910221143284A116128490C
:10155000284A11602421284A11600121214A516042
:10156000704710B5FFF7DFFF00F038F9002010BC1E
:1015700008BC1847704710B500F0FCF91F48006818
:10158000401C1E49086010BC08BC184710B51B4819
:10159000006800280AD019480068401E17490860F2
:1015A00008000068002801D100F0F0F910BC08BC68
:1015B00018470000AAAAAAAA121212121111111198
:1015C000101010100909090908080808070707077B
:1015D00006060606050505050404040403030303C3
:1015E00002020202004000E0983A000000F0FFFF13
:1015F000A418000000F1FFFF00F2FFFF44000040CC
:101600004A4AD008C0004A4A10600022484B5A603B
:10161000484A494B5A6000221A600100454A4A6014
:101620001A000A607047F8B5040000200090FFF728
:101630007CF942480068002804D1FFF7E1FF01204F
:101640003E490860002C12D020000830A0420ED97C
:1016500008346007400F0821081A0019A04204D975
:101660006007400F081A041902E0002400E000247B
:10167000002C32D03248006884422ED82C4F3800DB
:10168000056801E02F002D686868A04202D2286832
:101690000028F7D1284885421FD0386808300090CC
:1016A000286838606868001B102810D92E196868EF
:1016B000001B70606C6071681D4800E00068026883
:1016C00052688A42FAD3026832600660C0461C49FA
:1016D00068680968081A1A490860FFF769F80098ED
:1016E000F8BC08BC184770B506003500002E16D0AF
:1016F000083D2C00FFF719F961680D4800E000680B
:10170000026852688A42FAD30268226004600C4977
:101710006068096840180A490860FFF749F870BC1A
:1017200008BC184706480068704770471C01004015
:1017300050000040F8170000580000404C000040E6
:101740004800004070477047704700000E50A0E10D
:10175000180000EB05E0A0E10050B0E10D10A0E1A1
:101760000A30A0E10700C0E300D0A0E160D08DE224
:1017700020402DE9A5FAFFEB2040BDE80060A0E382
:101780000070A0E30080A0E300B0A0E30710C1E375
:1017900005C0A0E1C009ACE8C009ACE8C009ACE8EC
:1017A000C009ACE801D0A0E11EFF2FE10400C04653
:1017B000C0462000FEF722FD00009FE51EFF2FE13E
:1017C0001419004001C08FE21CFF2FE101491820CD
:1017D000ABDFFEE7260002001EFF2FE17847C04680
:1017E0006C019FE5000090E500E090E564019FE555
:1017F0000200BEE8001080E50100BEE800F06FE1E5
:10180000FF7FDEE80000A0E13CE09EE504F05EE240
:10181000000000EF1EFF2FE104E08EE201002DE941
:1018200000204DE90000A0E104D04DE20100BDE838
:10183000004020E900E0A0E10100BDE8FF7F4EE9A3
:101840000000A0E13CE04EE200004FE101002EE983
:1018500000019FE5000090E501002EE9F0009FE502
:10186000001090E500E081E5EC009FE50FE0A0E1CD
:1018700010FF2FE1D8009FE5000090E500E090E523
:10188000D0009FE50200BEE8001080E50100BEE840
:1018900000F06FE1FF7FDEE80000A0E13CE09EE5A4
:1018A00004F05EE201002DE900204DE90000A0E116
:1018B00004D04DE20100BDE8004020E900E0A0E1D5
:1018C0000100BDE8FF7F4EE90000A0E13CE04EE2F0
:1018D00000004FE101002EE978009FE5000090E54F
:1018E00001002EE968009FE5001090E500E081E529
:1018F00068009FE50FE0A0E110FF2FE1000050E33A
:101900000200000A50009FE50FE0A0E110FF2FE168
:101910000100A0E348109FE5000081E544009FE539
:10192000000080E528009FE5000090E500E090E5DC
:1019300020009FE50200BEE8001080E50100BEE83F
:1019400000F06FE1FF7FDEE80000A0E13CE09EE5F3
:1019500004F05EE20400004044000040BB0A0000C6
:10196000BB060000004000E030F0FFFF7847C046B3
:10197000A6FFFFEA7847C04600000FE1801080E331
:1019800001F021E1800000E21EFF2FE17847C04610
:1019900000000FE18000C0E300F021E11EFF2FE115
:1019A0007847C04601C05EE50C0053E10100003AF3
:1019B0000C30DEE7000000EA0330DEE783C08EE093
:1019C0001CFF2FE1E419000000000040600000004F
:1019D00048010000441A000060000040381F000069
:1019E0007001000000000000000000000000000086
:1019F00000000000000000000000000000000000E7
:101A000000000000000000000000000000000000D6
:101A100000000000000000000300000000000000C3
:101A200000000000000000000F270000F817000071
:101A300000000000000000000000000000000000A6
:041A400000000000A2
:0400000500000104F2
:00000001FF
