:020000040000FA
:1000000018F09FE518F09FE518F09FE518F09FE5C0
:1000100018F09FE50000A0E1F0FF1FE518F09FE554
:10002000580000004000000060240000480000006C
:100030004C000000000000005000000054000000D0
:10004000FEFFFFEAFEFFFFEAFEFFFFEAFEFFFFEA18
:10005000FEFFFFEAFEFFFFEA94009FE5AA10A0E37F
:100060005520A0E32430A0E3043080E50130A0E374
:10007000003080E50C1080E50C2080E5083090E52C
:10008000013B13E2FCFFFF0A0330A0E3003080E5F0
:100090000C1080E50C2080E558009FE50410A0E3DB
:1000A000041080E50210A0E3001080E548009FE501
:1000B000DBF021E300D0A0E1080040E2D7F021E32B
:1000C00000D0A0E1080040E2D1F021E300D0A0E19F
:1000D000080040E2D2F021E300D0A0E1030C40E2AE
:1000E000D3F021E300D0A0E1030C40E20C009FE537
:1000F00010FF2FE180C01FE000C01FE0A81F0040DC
:1001000004010000000000EB2E0000EB2C008FE249
:10011000000C90E800A08AE000B08BE001704AE299
:100120000B005AE10000001A260000EB0F00BAE8AD
:1001300018E04FE2010013E303F0471013FF2FE133
:10014000D8240000F8240000102052E27800B028E3
:100150007800A128FBFFFF8A822EB0E13000B02892
:100160003000A12800409045004081451EFF2FE14E
:100170000030B0E30040B0E30050B0E30060B0E313
:10018000102052E27800A128FCFFFF8A822EB0E105
:100190003000A128003081451EFF2FE101C08FE211
:1001A0001CFF2FE11FB5059886460FBC009C02B0CE
:1001B0007047000001C08FE21CFF2FE130B475468C
:1001C000AE4630BC70470000670800EB0210A0E1AB
:1001D000F1FFFFEB1CC09FE50FC08CE001001CE3AA
:1001E0000DE08F120FE0A0011CFF2FE101C08FE294
:1001F0001CFF2FE102F0EAF8A90000007847C04692
:1002000003002DE9EAFFFFEB0300BDE8740800EBF3
:100210000C009FE50C109FE504209FE508309FE54A
:100220001EFF2FE188190040901C004088190040F3
:1002300029E000F0FFF80400C04600F0FBF80428B5
:10024000FBD1002C06D0012C07D0022C09D0032CA6
:100250000FD10AE000F061F90CE00C2000F07DF90C
:1002600008E0182000F079F904E0242000F075F986
:1002700000E0C046C046C04600F0DCF80428FBD1D0
:10028000642000F041FCD4E784B03220039000F0F9
:10029000BFF800F051F90020012103007F220091F6
:1002A00001900100084800F02EFA0020012103AB64
:1002B0007F22009101900100044800F024FA00F030
:1002C000FFFDC046FEE70000310200007D05000092
:1002D000002806D0012813D0022820D003283CD1C2
:1002E0002CE04949096901221204114203D011008E
:1002F000454AD16103E001210904434A51612CE0E0
:100300004149096901225204114203D011003E4AB9
:10031000D16103E0012149043B4A51611DE03A49A2
:10032000096901229204114203D01100364AD161B9
:1003300003E001218904344A51610EE03249096920
:100340000122D204114203D011002F4AD16103E0EF
:100350000121C9042C4A5161C046C04670470F2094
:1003600000042949886101200004486170470F2179
:100370000904254AD161002806D0012809D00228A5
:100380000CD0032814D10EE0012109041E4A51614A
:100390000EE0012149041C4A516109E00121890450
:1003A000194A516104E00121C904174A5161C0464C
:1003B000C046704700B50300002B02D0012B0CD1C2
:1003C00005E012480068401C1049086006E00F482C
:1003D0000068401E0D49086000E0C046C0460B4959
:1003E00009788807800FFFF7C2FF08BC184700B5DF
:1003F0000020FFF7DFFF08BC184700B50120FFF71A
:10040000D9FF08BC18470000008002E0000000404F
:1004100017488068F0218843154988607047144860
:100420000268102090430100102901D1012070477B
:100430000020FCE70E4800681021084201D100208E
:1004400070470B4800684021084201D10120F7E7BE
:10045000074800682021084201D10220F0E7044843
:1004600000688021084201D10320E9E70420E7E782
:10047000008002E0454880680121890288434349A1
:10048000886070474148006801218902084201D113
:10049000012070470020FCE70EB53D480078002899
:1004A00002D0012834D110E0FFF7ECFF012805D07D
:1004B000002037490870FFF7A0FF05E0002034490D
:1004C000486088600120087023E031484068304966
:1004D000896888420DD0FFF78AFF2D484068401C8C
:1004E0002B4948604868302101F088FF2848416066
:1004F0000DE00022D24369462648006801F0A4FAC4
:10050000234902988860684600780870C04600E079
:10051000C046C04603B008BC18470EB50020009086
:100520000190029000231A0069461A48006801F001
:1005300076F903B008BC184710B500220C2114202E
:1005400001F0BAF813490860FFF709FFFFF792FFBF
:10055000FFF7E3FF10BC08BC18473EB504000E4A85
:1005600007CA6B4607C3029400231A00694609486C
:10057000006801F054F93EBC08BC1847040004E0D0
:10058000FFF78AFF206800F0BFFAF9E7008002E079
:1005900064000040040000400C26000010B5002458
:1005A00006E014216143FC4A881800F0E9FF641C4E
:1005B000042CF6D3F94800F0E3FFF94800F0E0FF1F
:1005C000F84800F0DDFFF84800F0DAFFF74800F0E7
:1005D000D7FFF248F6490860F148F649086010BCB8
:1005E00008BC184710B5040001F077FCF248006819
:1005F000401CF1490860F1480068002808D1EF4824
:1006000004600800006801280ED1FFF7C7FF0BE067
:10061000EB480068002807D1E8480068C06AE16A32
:10062000884201D8E5480460E6480068401CE54976
:100630000860E549E06A0968884202D9E249E06A4F
:1006400008601422E16A5143D34A8818211D00F042
:10065000A7FF01F04DFCDA480068002807D0D74812
:100660000068C06AE16A884201D201F0A3FF10BCB1
:1006700008BC1847FFB581B00E000A9F0C9C216B87
:100680000398401E8000081800900098C008C00021
:100690000090002E11D0002508E0715D200034305C
:1006A0004155705D002800D102E06D1C082DF4D387
:1006B000C04600213B20015502E0002134200155B5
:1006C000042F00D30327E762201D00F066FF2000FF
:1006D000183000F062FF24610420C01BA061646236
:1006E0000021E16340200155049A684603C801F0E7
:1006F0008DFB20600B98002801D00B98046005B09A
:10070000F0BC08BC1847FFB585B01700B80001F071
:100710003CFC0600002E0BD0442001F036FC040007
:10072000002C01D0266304E0300001F08EFC00E0D4
:100730000024002C10D000220EA803C86B4613C35F
:1007400003923A00089B05A803C8FFF793FF200017
:10075000FFF748FF012501E00025ED43280009B01F
:10076000F0BC08BC1847924800680068002801D116
:10077000012000E00020002804D00020C04393495D
:10078000086005E08A480068C06800688F49086012
:10079000704710B50400206B01F057FC200001F0F9
:1007A00054FC10BC08BC184770B5050001F095FB5F
:1007B000002D02D18148006800E028000400201DBF
:1007C00000F015FFA06A002803D02000183000F0C8
:1007D0000EFF7C480068401C7A4908607748006832
:1007E000844209D1211D704800F0DAFE7848006883
:1007F000401C7749086009E06F480068401E6E4958
:1008000008602000FFF7C5FFFFF7ADFF01F070FBA8
:100810006B480068002805D068480068844201D110
:1008200001F0C8FE70BC08BC1847F8B50020009065
:100830006848006800286AD167480068451C664817
:100840000560002D0FD15A4807685A48006858497A
:1008500008605848076061480068401C5F490860AC
:10086000FFF781FFC0465948006885423DD3C04626
:100870004F4800680068002801D1012000E00020F6
:10088000002804D00020C043504908602CE04848AC
:100890000068C068C4686668B54202D24B4806600A
:1008A00022E0201D00F0A3FEA06A002803D0200053
:1008B000183000F09CFE4449E06A0968884202D979
:1008C0004149E06A08601422E16A5143324A8818BB
:1008D000211D00F065FE3949E06A0968C96A88424D
:1008E000C6D301200090C3E7C04634480068C06A00
:1008F0001421484328490858012801D901200090B3
:1009000037480068002801D00120009004E03548F5
:100910000068401C334908600098F8BC08BC1847C0
:1009200070B50024002601F0D8FA2A480068401E5D
:100930002849086008000068002875D11E48006832
:10094000002871D022E01748C068C4682000183021
:1009500000F04DFE201D00F04AFE1B49E06A0968C8
:10096000884202D91849E06A08601422E16A5143BA
:10097000094A8818211D00F013FE1049E06A096831
:10098000C96A884202D301201549086005480068F9
:10099000002829D1012028E070000040C00000405C
:1009A000D4000040E8000040FC000040100100407E
:1009B000400000404400004010000040080000409B
:1009C0001C0000402C000040180000403000004097
:1009D0000C0000403C000040140000402800004093
:1009E000240000402000004000200028ABD0002C54
:1009F00001D0FFF7B8FEFE480568002D0DD0C046B7
:100A0000FFF713FF002802D00120FA4908606D1E8D
:100A1000002DF5D10020F6490860F648006800284E
:100A200002D0012601F0C6FD01F062FA300070BC70
:100A300008BC1847F8B505000E00EF480768EF48F6
:100A40000068001D00F0D3FD681C08D1002E06D000
:100A5000EA480168091DEA4800F0A2FD1AE07C1985
:100A6000E64800684460BC4207D2E4480168091DBA
:100A7000E448006800F0A0FD0CE0E0480168091DB2
:100A8000E148006800F098FDE0480068844201D227
:100A9000DE480460F8BC08BC1847DD480068401C0C
:100AA000DB4908607047F3B581B004000020009076
:100AB000FFF7F3FFD0480668216802980D182068F8
:100AC000B04207D92068A8420BD9B54209D9012004
:100AD000009006E02068A84201D8B54201D9012063
:100AE000009025600098002803D0A81B0021FFF784
:100AF000A1FFFFF715FF0700002F01D101F05AFDFC
:100B00000098FEBC08BC184770B504000025002CF6
:100B100008D0FFF7C2FF00212000FFF78BFFFFF78F
:100B2000FFFE0500002D01D101F044FD70BC08BCA2
:100B3000184770B5040001F0D0F9002C02D1AF487D
:100B4000006800E020000600F56A01F0D1F92800F5
:100B500070BC08BC184710B401000023002902D162
:100B6000A64C246800E00C002200D06A10BC70473C
:100B7000FEB507000D0000200090042D00D30325D2
:100B800001F0ABF9002F02D19C48006800E038006A
:100B90000400E66AAE4243D0B5420BD997480068DC
:100BA00084420DD095480068C06AA84208D8012048
:100BB000009005E091480068844201D10120009036
:100BC000E06A0190E562A069C00FC00702D104206D
:100BD000401BA06161691422019850438D4A80181E
:100BE000814201D1012000E00020002812D0201D08
:100BF00000F0FDFC8849E06A0968884202D986490C
:100C0000E06A08601422E16A5143824A8818211D73
:100C100000F0C6FC0098002801D001F0CBFCC046D3
:100C200001F066F9FEBC08BC184779480068002846
:100C300003D001206F49086027E000206D4908605B
:100C40007548016800E0491E14204843714A105855
:100C5000002801D1012000E000200028F3D1142257
:100C60004A436C4BD0184268526842600200083216
:100C70004368934202D14268526842604268D26837
:100C80005E4B1A6064480160C046704770B505004D
:100C900001F023F9002D02D15848006800E0280037
:100CA0000400201D00F0A3FCA06A002803D020004F
:100CB000183000F09CFC211D514800F071FC002010
:100CC00009E021004031095C012903D10022210003
:100CD00040310A54401C0128F3DB01F009F94F4868
:100CE0000068002805D001F0F8F8FFF73CFD01F09E
:100CF000FFF842480068844212D148480068002842
:100D000002D001F057FC0BE03D48006844490968F7
:100D1000884203D100203949086001E0FFF785FFD0
:100D200070BC08BC184710B4010000200A00344C05
:100D30005369A34201D1012300E00023002B11D00D
:100D4000384C936AA34201D1012300E00023002B19
:100D500008D1936A002B01D1012300E00023002B6E
:100D600000D0012010BC704770B505002C0023484E
:100D70000068844225D0002C23D001F0AEF820007A
:100D8000FFF7D1FF00281AD0201D00F030FC2249C7
:100D9000E06A0968884202D91F49E06A08601422A3
:100DA000E16A51431B4A8818211D00F0F9FB1349E1
:100DB000E06A0968C96A884201D301F0FBFB01F0CF
:100DC00097F870BC08BC1847F8B5050000262C0041
:100DD00000272000FFF7A7FF002843D00C48006839
:100DE00000283AD10549E06A0968C96A88421BE0CF
:100DF0002000004024000040140000400800004093
:100E0000100100404400004040000040300000401D
:100E10003C00004070000040180000401C000040F2
:100E200010000040E800004003D301260120F749EC
:100E30000860201D00F0DBFBF549E06A0968884284
:100E400002D9F349E06A08601422E16A5143F14A89
:100E50008818211D00F0A4FB04E021001831EE48A1
:100E600000F09EFB3000F8BC08BC184710B516E037
:100E700001F033F8E948C068C468201D00F0B7FBF2
:100E8000E7480068401EE6490860E6480068401EE2
:100E9000E449086001F02CF82000FFF77AFCE148F3
:100EA00000680028E4D110BC08BC1847C046FFF712
:100EB000DDFFD84800680128F9D901F07BFBF6E78F
:100EC0001CB5D94800210B005A2200910190D7A1EE
:100ED000D848FFF718FC0400012C0CD101F06EFB80
:100EE000A01ED54908600120D44908600020D449DB
:100EF000086000F0E8FFD34800681CBC08BC184735
:100F000010B501F05BFB0020CC49086000F0E4FF65
:100F100010BC08BC184710B500F0DFFFC8480468D3
:100F200000F0E6FF200010BC08BC18470021C44AAE
:100F300010687047BA48006870470100002902D164
:100F4000C148006800E0080002001000343070471B
:100F500070B50400FFF7A1FDBC4800680019BB494B
:100F60000860FFF7DDFC0500280070BC08BC1847CE
:100F700070B505000C00B44801681831280000F075
:100F80001BFB01212000FFF755FD70BC08BC184772
:100F900070B506000C0015000120C0072043AA49C7
:100FA00009688861A84801681831300000F0F8FA33
:100FB00001212800FFF73EFD70BC08BC184770B542
:100FC0000600F068C4682000183000F010FBA0484C
:100FD0000068002813D1201D00F009FB8C49E06A4D
:100FE0000968884202D98A49E06A08601422E16AE5
:100FF0005143884A8818211D00F0D2FA04E02100EC
:101000001831854800F0CCFA8F49E06A0968C96A4E
:10101000884204D9012501207C49086000E00025B0
:10102000280070BC08BC184770B505000E000120F0
:10103000C00730432860EC68280000F0D8FA201D73
:1010400000F0D5FA7249E06A0968884202D970490D
:10105000E06A08601422E16A51436E4A8818211D33
:1010600000F09EFA7849E06A0968C96A884202D9A4
:1010700001206649086070BC08BC184710B5040020
:1010800000F02BFF7348006820606D4800686060C6
:1010900000F02EFF10BC08BC18476E4909680160BB
:1010A000674909684160704770B506000C0000F0A0
:1010B00014FF634802687068131A2068401C01D14D
:1010C000002519E0634930680968884206D07068D5
:1010D000904203D80125002020600DE0206898424E
:1010E00007D92068C01A20603000FFF7D6FF00251E
:1010F00002E000202060012500F0FAFE280070BC0C
:1011000008BC184701204149086070474E490968EA
:1011100088694D490968C96A0422511A4A4A126805
:1011200091617047F8B504000F00160000F0D5FE7D
:10113000A100454800683C30405800280BD10121EF
:101140004148006840300155002E04D03000FFF7C0
:1011500071FC01F02FFA00F0CBFE00F0BEFEA10002
:10116000394800683C304558002D0ED0002F06D07D
:101170000021A200344800683C30815005E0681E20
:10118000A200314909683C31885000212E4800688E
:101190004030015500F0ACFE2800F8BC08BC1847F0
:1011A000FFB581B004000F001D0000F096FE264838
:1011B00000684030005D022814D0A200224909686E
:1011C0003C3150180168B943016001211E48006894
:1011D000403001550A98002804D00A98FFF72AFCED
:1011E00001F0E8F900F084FE00F077FE002D05D054
:1011F000A100154800683C3040582860124800683B
:101200004030005D022827D000262FE02400004057
:101210001800004070000040E8000040FC00004062
:10122000100000400C0000403400004049444C4590
:1012300000000000AD0E0000300000401C00004027
:10124000140000403800004008000040200000402A
:101250003C00004028000040A200C34909683C311E
:101260005018026803998A43026001260021BE4893
:1012700000684030015500F03BFE300005B0F0BC86
:1012800008BC1847FFB583B00D0016001F000120F1
:101290000290039C00F021FE0C98002805D0A900C4
:1012A00020003C3041580C98016020004030405DE7
:1012B000019002212000403041553B0001F094F99B
:1012C0000528040E181D2900A90020003C304058B4
:1012D0003043AA0021003C3188501BE0A9002000C7
:1012E0003C304058401CAA0021003C31885011E09D
:1012F000A90020003C3046500CE00198022804D0A0
:10130000A90020003C30465001E00020029001E09E
:1013100000E0C046C046019801281AD1201D00F007
:1013200066F99249E06A0968884202D98F49E06A01
:1013300008601422E16A51438D4A8818211D00F08B
:101340002FF98949E06A0968C96A884201D901F020
:1013500031F900F0CDFD029807B0F0BC08BC184789
:10136000FFB583B00D0016001F0001200190039C03
:10137000002000900C98002805D0A90020003C30E7
:1013800041580C98016020004030405D02900221DD
:101390002000403041553B0001F026F90528040E9D
:1013A000181D2900A90020003C3040583043AA00F5
:1013B00021003C3188501BE0A90020003C304058FF
:1013C000401CAA0021003C31885011E0A9002000F7
:1013D0003C3046500CE00298022804D0A9002000BE
:1013E0003C30465001E00020019001E000E0C046A2
:1013F000C046029801282BD15E480068002813D10E
:10140000201D00F0F4F85949E06A0968884202D9C1
:101410005649E06A08601422E16A5143544A881828
:10142000211D00F0BDF804E021001831524800F001
:10143000B7F84D49E06A0968C96A884208D90D9829
:10144000002802D001210D98016001204B4908605D
:10145000019807B0F0BC08BC1847FEB505000E00A7
:1014600017002C000020009020004030805D01908B
:101470000221200040308155B100001F4058401C1F
:10148000B20021003C3188500198012829D1394807
:101490000068002813D1201D00F0A9F83349E06A44
:1014A0000968884202D93149E06A08601422E16A79
:1014B00051432F4A8818211D00F072F804E02100E2
:1014C00018312D4800F06CF82749E06A0968C96AAC
:1014D000884206D9002F01D0012038600120274919
:1014E0000860FEBC08BC1847F8B506000C00002ECA
:1014F00002D11D48006800E03000070000F0EDFC5C
:1015000038004030005D022805D10021380040300D
:101510000155012500E0002500F0EAFC2800F8BC98
:1015200008BC1847F8B506000C001700002E02D1C1
:101530000D48006800E03000050000F0CEFCA1007E
:1015400028003C3040580090A10028003C30405812
:10155000B843A20029003C31885000F0C9FC009833
:10156000F8BC08BC18470000080000401800004004
:10157000700000403C000040E800004024000040B3
:101580000100083141600021C94381600100083138
:10159000C160016100210160704700210161704755
:1015A00042684A6093688B609368596091600861F3
:1015B00003685B1C0360704710B402000B685C1C7E
:1015C00001D1106907E01000083000E0406844686D
:1015D00024689C42FAD944684C604C68A1608860D9
:1015E00041600A611468641C146010BC70470100FB
:1015F0000A694B6888689860081D09C85860506877
:10160000884201D188685060002008611068401E3F
:1016100010601068704770B505000E002C0000F0D7
:101620005CFC216CE06B484321684018A0600020FE
:10163000A06320686060E06B401E216C4843216815
:101640004118E1600021C94344200155452001555E
:10165000002E10D12069002801D1012000E00020D7
:10166000002810D120001030FFF7A9FC00280AD074
:1016700000F0A0FF07E020001030FFF781FF2000FE
:101680002430FFF77DFF00F033FC012070BC08BC64
:101690001847F8B506000D001700069C002D01D173
:1016A000246000E02760E663256401212000FFF745
:1016B000B2FFF8BC08BC1847FEB505000E001700C5
:1016C00028007043029002990800483000F05DFC49
:1016D0000400002C0BD00194019C200048300190A4
:1016E0003B00009431002800019AFFF7D2FF200050
:1016F000FEBC08BC184770B5040000F0EEFB4520A6
:10170000055714E0606A002801D1012000E00020A4
:10171000002808D120002430FFF751FC002803D016
:10172000FFF7F0FC00E004E0681E00060516002D3F
:10173000E8DCC0460021C9434520015500F0D8FB34
:1017400000F0CBFB4420055714E02069002801D1AC
:10175000012000E0002000280BD120001030FFF70E
:101760002EFC002801D0FFF7CDFC681E00060516F0
:1017700000E001E0002DE8DCC0460021C943442020
:10178000015500F0B5FB70BC08BC184770B50500EA
:1017900000F0A3FBA86BE96B884201D1012400E0B3
:1017A000002400F0A5FB200070BC08BC1847F8B569
:1017B00004000F00150000200090A66B206C00288C
:1017C00027D0002D0FD13900226C606800F06CFC2E
:1017D000216C606840186060A1686068884218D316
:1017E0002068606015E03900226CE06800F05CFC65
:1017F000216CE068411AE1602168E068884203D208
:10180000216CA068411AE160022D02D1002E00D0A7
:10181000761E701CA0630098F8BC08BC1847FFB582
:1018200083B007001D00002002903C00C04600F07D
:1018300054FBA06BE16B884201D3022D21D12A0019
:1018400020000499FFF7B3FF0600606A002801D169
:10185000012000E00020002808D120002430FFF7FC
:10186000AEFB002806D000F0A5FE03E0002E01D05C
:1018700000F0A0FE00F03CFB012007B0F0BC08BC6B
:1018800018470598002803D100F032FB0020F4E748
:101890000298002804D16846FFF7FFFB0120029060
:1018A00000F026FBFFF7F9F800F017FB4420015782
:1018B000491C00D1015545200157491C00D1015553
:1018C00000F016FB05A96846FFF7EEFB002819D1CA
:1018D0002000FFF75BFF00280ED020001030059994
:1018E000FFF746FB2000FFF706FFFFF719F8002877
:1018F0009DD100F05FFE9AE72000FFF7FCFEFFF7A6
:101900000FF894E72000FFF7F6FEFFF709F8002034
:10191000B3E7FFB585B0050016001F002C000020BE
:101920000390A06BE16B884201D3022F28D14520A0
:1019300001570291A06B01903A0020000699FFF731
:1019400036FF0298401C12D1606A002801D10120A4
:1019500000E00020002809D120002430FFF72FFBF1
:10196000002803D0002E01D00120306005E002984D
:10197000401C01060916452001550120049001E094
:1019800000200490049809B0F0BC08BC1847FEB5CC
:1019900005000E002C0000200290A06B0190E16B6E
:1019A0000198814223D94520015700910198401C9C
:1019B000A0630098401C12D1606A002801D1012068
:1019C00000E00020002810D120002430FFF7F7FAB3
:1019D00000280AD0002E08D00120306005E00098D1
:1019E000401C0106091645200155012700E000278B
:1019F0003800FEBC08BC184770B5050000F06DFA51
:101A0000A86B002801D1012400E0002400F070FA46
:101A1000200070BC08BC184770B504000D00206C95
:101A200000280ED0216CE0684118E160A168E068F0
:101A3000884201D32168E1602800226CE16800F04F
:101A400033FB70BC08BC1847F7B582B0050000270F
:101A50002C00C04600F041FAA66B002E1CD02000DE
:101A60000399FFF7D9FF701EA0632069002801D1F8
:101A7000012000E00020002807D120001030FFF7EF
:101A80009EFA002801D000F095FD00F031FA012007
:101A900005B0F0BC08BC18470498002803D100F03A
:101AA00027FA0020F4E7002F03D16846FFF7F5FA84
:101AB000012700F01DFAFEF7F0FF00F00EFA4420B7
:101AC0000157491C00D1015545200157491C00D13F
:101AD000015500F00DFA04A96846FFF7E5FA002861
:101AE00019D12000FFF788FF00280ED020002430F5
:101AF0000499FFF73DFA2000FFF7FDFDFEF710FF08
:101B00000028A7D100F056FDA4E72000FFF7F3FD61
:101B1000FEF706FF9EE72000FFF7EDFDFEF700FF52
:101B20002000FFF769FF002894D00020B0E7F3B54C
:101B300083B0050000272C00C04600F0CEF9A66B4C
:101B4000002E18D0701EA0632069002801D101204A
:101B500000E00020002807D120001030FFF72FFA06
:101B6000002801D000F026FD00F0C2F9012005B0E8
:101B7000F0BC08BC18470498002803D100F0B8F95D
:101B80000020F4E7002F03D101A8FFF786FA012710
:101B900000F0AEF9FEF781FF00F09FF944200157F5
:101BA000491C00D1015545200157491C00D1015560
:101BB00000F09EF904A901A8FFF776FA002819D1D0
:101BC0002000FFF719FF00280ED0200024300499D0
:101BD000FFF7CEF92000FFF78EFDFEF7A1FE0028EB
:101BE000ABD100F0E7FCA8E72000FFF784FDFEF78B
:101BF00097FEA2E72000FFF77EFDFEF791FE200092
:101C0000FFF7FAFE002898D00020B0E7F7B584B0BF
:101C1000050000272C00C04600F05FF9A06B019082
:101C2000019800281CD0E66820000599FFF7F4FE13
:101C3000E660606A002801D1012000E00020002851
:101C400007D120002430FFF7BAF9002801D000F0B6
:101C5000B1FC00F04DF9012007B0F0BC08BC1847FA
:101C60000698002803D100F043F90020F4E7002F84
:101C700003D102A8FFF711FA012700F039F9FEF7A6
:101C80000CFF00F02AF944200157491C00D10155EE
:101C900045200157491C00D1015500F029F906A93A
:101CA00002A8FFF701FA002819D12000FFF7A4FECF
:101CB00000280ED0200024300699FFF759F92000A3
:101CC000FFF719FDFEF72CFE0028A5D100F072FCED
:101CD000A2E72000FFF70FFDFEF722FE9CE72000A1
:101CE000FFF709FDFEF71CFE2000FFF785FE002828
:101CF00092D00020B0E7F7B584B0050016002C00A4
:101D000000200390A06B02900298002827D0442066
:101D10000157019120000599FFF77EFE0298401EB1
:101D2000A0630198401C12D12069002801D1012034
:101D300000E00020002810D120001030FFF73FF90C
:101D400000280AD0002E08D00120306005E001985C
:101D5000401C0106091644200155012700E0002718
:101D6000380007B0F0BC08BC1847F3B581B00500D7
:101D70002C0000200090A06B002807D0E76820000E
:101D80000299FFF749FEE760012600E000263000D7
:101D9000FEBC08BC184770B5040000F09EF8A56BA7
:101DA00000F0A6F8280070BC08BC184770B5040005
:101DB000250000F092F8A96BE86B461A00F098F83D
:101DC000300070BC08BC184701000A00906B7047D7
:101DD00070B504002500280000F037F970BC08BC7D
:101DE000184701000A00936B002B01D1012000E08D
:101DF0000020704710B401000A00936BD46BA3421B
:101E000001D1012000E0002010BC704730B4030075
:101E1000001F0C1D0460001F3F4C0460001F036086
:101E2000001F3E4C0460001F3D4C0460001F3D4CF1
:101E30000460001F3C4C0460001F3C4C0460001F09
:101E40003B4C0460001F3B4C0460001F3A4C046094
:101E5000001F3A4C0460001F394C0460001F394CCD
:101E60000460001F64100460001F0260001F1F2434
:101E70000460CC07E40F03D0202504682C430460E1
:101E8000001F0024046030BC704700212E4AD1603E
:101E90002E4811008861032151615114C968102234
:101EA00091432B4AD1601100096910221143284A3D
:101EB00011612849284A11602421284A1160012112
:101EC000214A5160704710B5FFF7DFFF00F0AAFA12
:101ED000002010BC08BC1847704710B500F06EFB1E
:101EE0001F480068401C1E49086010BC08BC184709
:101EF00010B51B48006800280AD019480068401E29
:101F00001749086008000068002801D100F062FB52
:101F100010BC08BC18470000AAAAAAAA12121212E2
:101F200011111111101010100909090908080808E9
:101F30000707070706060606050505050404040449
:101F40000303030302020202004000E0983A00008B
:101F500000F0FFFFEC24000000F1FFFF00F2FFFFA4
:101F6000480000404A4AD008C0004A4A1060002297
:101F7000484B5A60484A494B5A6000221A60010097
:101F8000454A4A601A000A607047F8B5040000200C
:101F90000090FEF782FD42480068002804D1FFF758
:101FA000E1FF01203E490860002C12D020000830DB
:101FB000A0420ED908346007400F0821081A001902
:101FC000A04204D96007400F081A041902E0002457
:101FD00000E00024002C32D03248006884422ED821
:101FE0002C4F3800056801E02F002D686868A0427A
:101FF00002D228680028F7D1284885421FD03868C7
:1020000008300090286838606868001B102810D9D4
:102010002E196868001B70606C6071681D4800E0D4
:102020000068026852688A42FAD302683260066029
:10203000C0461C4968680968081A1A490860FEF712
:102040006FFC0098F8BC08BC184770B50600350056
:10205000002E16D0083D2C00FEF71FFD61680D48CC
:1020600000E00068026852688A42FAD3026822607F
:1020700004600C496068096840180A490860FEF766
:102080004FFC70BC08BC1847064800687047704792
:102090002C01004054000040F81700005C00004094
:1020A000500000404C0000407847C046030052E317
:1020B0002A00009A03C010E20800000A0130D1E4AF
:1020C00002005CE30C2082E001C0D1940130C0E446
:1020D0000130D13401C0C094042042E20130C03448
:1020E000033011E28700000A042052E21B00003A8C
:1020F00003C031E7020053E30800000A0F00008A22
:102100002C34A0E104C0B1E5042052E20C3C83E190
:10211000043080E4F9FFFF2A011081E20F0000EA99
:102120002C38A0E104C0B1E5042052E20C3883E170
:10213000043080E4F9FFFF2A021081E2070000EA80
:102140002C3CA0E104C0B1E5042052E20C3483E150
:10215000043080E4F9FFFF2A031081E20000A0E1CF
:10216000822FB0E10130D12401C0D1240120D1441B
:102170000130C02401C0C0240120C0441EFF2FE153
:10218000013090E12100004A0020B0E3A03071E06E
:102190001A00003A203271E00F00003A203471E05A
:1021A0000100003A00C0A0E3200000EAA03371E083
:1021B000810340200220B2E0203371E0010340207F
:1021C0000220B2E0A03271E0810240200220B2E0A1
:1021D000203271E0010240200220B2E0A03171E023
:1021E000810140200220B2E0203171E00101402055
:1021F0000220B2E0A03071E0810040200220B2E075
:10220000011050E00010A0310200A2E01EFF2FE1FB
:10221000022111E20010614240C032E00000602261
:10222000203271E01D00003A203471E00F00003AC6
:102230000113A0E1203471E03F2382E30B00003A58
:102240000113A0E1203471E03F2682E30700003A49
:102250000113A0E1203471E03F2982E30113A021A2
:102260003F2C8223003071E21D00002A2113A0219F
:10227000A03371E0810340200220B2E0203371E0FE
:10228000010340200220B2E0A03271E08102402030
:102290000220B2E0203271E0010240200220B2E0D0
:1022A000A03171E0810140200220B2E0203171E0D4
:1022B000010140200220B2E0EBFFFF2AA03071E0D4
:1022C000810040200220B2E0011050E00010A03157
:1022D0000200A2E0CCCFB0E1000060420010612219
:1022E0001EFF2FE1CCCFB0E10000604201402DE99C
:1022F0000000B0E30000A0E10240BDE81EFF2FE1B6
:10230000704770477047000010402DE9202052E2CE
:102310000500003A1850B1E8202052E21850A0E819
:102320001850B1E81850A0E8F9FFFF2A02CEB0E13A
:102330001850B1281850A0281800B1481800A0481B
:102340001040BDE802CFB0E1043091240430802475
:102350001EFF2F01822FB0E1B230D1200120D144E5
:10236000B230C0200120C0441EFF2FE10E50A0E17A
:10237000180000EB05E0A0E10050B0E10D10A0E175
:102380000A30A0E10700C0E300D0A0E160D08DE2F8
:1023900020402DE99DF7FFEB2040BDE80060A0E361
:1023A0000070A0E30080A0E300B0A0E30710C1E349
:1023B00005C0A0E1C009ACE8C009ACE8C009ACE8C0
:1023C000C009ACE801D0A0E11EFF2FE10400C04627
:1023D000C0462000FDF712FF00009FE51EFF2FE121
:1023E0002419004001C08FE21CFF2FE10149182091
:1023F000ABDFFEE7260002001EFF2FE17847C04654
:102400000020B0E3203171E079FFFF3AA03271E0A3
:102410006EFFFF3A203471E063FFFF3A00C0A0E393
:1024200082FFFFEA7847C0466C019FE5000090E517
:1024300000E090E564019FE50200BEE8001080E541
:102440000100BEE800F06FE1FF7FDEE80000A0E1E0
:102450003CE09EE504F05EE2000000EF1EFF2FE18D
:1024600004E08EE201002DE900204DE90000A0E12A
:1024700004D04DE20100BDE8004020E900E0A0E109
:102480000100BDE8FF7F4EE90000A0E13CE04EE224
:1024900000004FE101002EE900019FE5000090E5FA
:1024A00001002EE9F0009FE5001090E500E081E5D5
:1024B000EC009FE50FE0A0E110FF2FE1D8009FE5C1
:1024C000000090E500E090E5D0009FE50200BEE846
:1024D000001080E50100BEE800F06FE1FF7FDEE85C
:1024E0000000A0E13CE09EE504F05EE201002DE981
:1024F00000204DE90000A0E104D04DE20100BDE85C
:10250000004020E900E0A0E10100BDE8FF7F4EE9C6
:102510000000A0E13CE04EE200004FE101002EE9A6
:1025200078009FE5000090E501002EE968009FE536
:10253000001090E500E081E568009FE50FE0A0E174
:1025400010FF2FE1000050E30200000A50009FE559
:102550000FE0A0E110FF2FE10100A0E348109FE58C
:10256000000081E544009FE5000080E528009FE52C
:10257000000090E500E090E520009FE50200BEE845
:10258000001080E50100BEE800F06FE1FF7FDEE8AB
:102590000000A0E13CE09EE504F05EE2080000409F
:1025A000480000402B0C00002B080000004000E019
:1025B00030F0FFFF7847C046A6FFFFEA7847C046E5
:1025C00000000FE1801080E301F021E1800000E2D3
:1025D0001EFF2FE17847C04600000FE18000C0E3F6
:1025E00000F021E11EFF2FE17847C04601C05EE503
:1025F0000C0053E10100003A0C30DEE7000000EA75
:102600000330DEE783C08EE01CFF2FE101000000F5
:10261000000000000000000038260000000000401C
:1026200064000000480100009C2600006400004097
:10263000441F0000700100000000000000000000C6
:10264000000000000000000000000000000000008A
:10265000000000000000000000000000000000007A
:10266000000000000000000000000000000000006A
:102670000300000000000000000000000000000057
:102680000F270000F8170000000000000000000005
:0C2690000000000000000000000000003E
:0400000500000104F2
:00000001FF
