:020000040000FA
:1000000018F09FE518F09FE518F09FE518F09FE5C0
:1000100018F09FE50000A0E1F0FF1FE518F09FE554
:1000200058000000400000002819000048000000AF
:100030004C000000000000005000000054000000D0
:10004000FEFFFFEAFEFFFFEAFEFFFFEAFEFFFFEA18
:10005000FEFFFFEAFEFFFFEA94009FE5AA10A0E37F
:100060005520A0E32430A0E3043080E50130A0E374
:10007000003080E50C1080E50C2080E5083090E52C
:10008000013B13E2FCFFFF0A0330A0E3003080E5F0
:100090000C1080E50C2080E558009FE50410A0E3DB
:1000A000041080E50210A0E3001080E548009FE501
:1000B000DBF021E300D0A0E1080040E2D7F021E32B
:1000C00000D0A0E1080040E2D1F021E300D0A0E19F
:1000D000080040E2D2F021E300D0A0E1030C40E2AE
:1000E000D3F021E300D0A0E1030C40E20C009FE537
:1000F00010FF2FE180C01FE000C01FE0981F0040EC
:1001000004010000000000EB2E0000EB2C008FE249
:10011000000C90E800A08AE000B08BE001704AE299
:100120000B005AE10000001A260000EB0F00BAE8AD
:1001300018E04FE2010013E303F0471013FF2FE133
:10014000A4190000C4190000102052E27800B02861
:100150007800A128FBFFFF8A822EB0E13000B02892
:100160003000A12800409045004081451EFF2FE14E
:100170000030B0E30040B0E30050B0E30060B0E313
:10018000102052E27800A128FCFFFF8A822EB0E105
:100190003000A128003081451EFF2FE101C08FE211
:1001A0001CFF2FE11FB5059886460FBC009C02B0CE
:1001B0007047000001C08FE21CFF2FE130B475468C
:1001C000AE4630BC70470000A30500EB0210A0E172
:1001D000F1FFFFEB1CC09FE50FC08CE001001CE3AA
:1001E0000DE08F120FE0A0011CFF2FE101C08FE294
:1001F0001CFF2FE101F062FBA10000007847C04620
:1002000003002DE9EAFFFFEB0300BDE8B00500EBBA
:100210000C009FE50C109FE504209FE508309FE54A
:100220001EFF2FE178190040801C00407819004023
:1002300004000DE0607800F047F821787D20C000D0
:1002400001F046FA0500C10F4919481000F06EFB95
:10025000F0E7040013E000250FE065700220207035
:100260007D20C00000F062FB0A2020707D20C000CD
:1002700000F05CFB681C05062D0E022DEDDBEAE7A5
:1002800084B00E480068039000F065F80020022159
:1002900003AB6422009101900100094800F063F96A
:1002A0000020022103AB6422009101900100054867
:1002B00000F059F900F004FDC046FEE7E01A000026
:1002C0003102000053020000002806D0012813D09C
:1002D000022820D003283CD12CE049490969012299
:1002E0001204114203D01100454AD16103E00121FB
:1002F0000904434A51612CE0414909690122520431
:10030000114203D011003E4AD16103E001214904AA
:100310003B4A51611DE03A490969012292041142A8
:1003200003D01100364AD16103E001218904344A27
:1003300051610EE0324909690122D204114203D011
:1003400011002F4AD16103E00121C9042C4A5161F7
:10035000C046C04670470F2000042949886101202B
:100360000004486170470F210904254AD161002823
:1003700006D0012809D002280CD0032814D10EE0A1
:10038000012109041E4A51610EE0012149041C4A61
:10039000516109E001218904194A516104E00121F8
:1003A000C904174A5161C046C046704700B50300F2
:1003B000002B02D0012B0CD105E012480068401C34
:1003C0001049086006E00F480068401E0D490860AB
:1003D00000E0C046C0460B4909788807800FFFF748
:1003E000C2FF08BC184700B50020FFF7DFFF08BCBC
:1003F000184700B50120FFF7D9FF08BC18470000D7
:10040000008002E00000004010B5002406E0142146
:100410006143FD4A881800F0ADFF641C042CF6D33C
:10042000FA4800F0A7FFFA4800F0A4FFF94800F0EE
:10043000A1FFF94800F09EFFF84800F09BFFF34849
:10044000F7490860F248F749086010BC08BC184733
:1004500010B5040001F041F8F3480068401CF2496F
:100460000860F2480068002808D1F04804600800DD
:10047000006801280ED1FFF7C7FF0BE0EC480068C9
:10048000002807D1E9480068C06AE16A884201D8BB
:10049000E6480460E7480068401CE6490860E64911
:1004A000E06A0968884202D9E349E06A08601422D8
:1004B000E16A5143D44A8818211D00F06BFF01F016
:1004C00017F8DB480068002801D0D848006810BC45
:1004D00008BC1847FFB581B00E000A9F0C9C216B29
:1004E0000398401E8000081800900098C008C000C3
:1004F0000090002E11D0002508E0715D20003430FE
:100500004155705D002800D102E06D1C082DF4D328
:10051000C04600213B20015502E000213420015556
:10052000042F00D30327E762201D00F030FF2000D6
:10053000183000F02CFF24610420C01BA06164620D
:100540000021E16340200155049A684603C800F089
:100550005DFF20600B98002801D00B98046005B067
:10056000F0BC08BC1847FFB585B01700B80001F013
:1005700020F80600002E0BD0442001F01AF80400E9
:10058000002C01D0266304E0300001F072F800E096
:100590000024002C10D000220EA803C86B4613C301
:1005A00003923A00089B05A803C8FFF793FF2000B9
:1005B000FFF74EFF012501E00025ED43280009B0BB
:1005C000F0BC08BC1847964800680068002801D1B4
:1005D000012000E00020002804D00020C0439749FB
:1005E000086005E08E480068C068006893490860AC
:1005F000704710B50400206B01F03BF8200001F0BB
:1006000038F810BC08BC184770B5050000F065FF4D
:10061000002D02D18548006800E028000400201D5C
:1006200000F0DFFEA06A002803D02000183000F0A0
:10063000D8FE80480068401C7E4908607B480068FE
:10064000844209D1211D744800F0A4FE7C48006852
:10065000401C7B49086009E073480068401E7249ED
:1006600008602000FFF7C5FFFFF7ADFF00F040FF77
:100670006F480068002805D06C480068844201D1AA
:1006800001F0FCF970BC08BC1847F8B500200090D8
:100690006C480068002851D16B480068451C6A48C6
:1006A0000560002D0FD15E4807685E4800685C4910
:1006B00008605C48076065480068401C6349086042
:1006C000FFF781FFC0465D480068854235D3C046CC
:1006D000534800680068002801D1012000E0002094
:1006E000002804D00020C0435449086024E04C484E
:1006F0000068C068C4686668B54202D24F480660A8
:100700001AE0201D00F06DFEA06A002803D0200032
:10071000183000F066FE4849E06A0968884202D94C
:100720004549E06A08601422E16A5143364A881854
:10073000211D00F02FFECBE7C04604E044480068CE
:10074000401C434908600098F8BC08BC184770B5C5
:100750000024002600F0C1FE3A480068401E3949D6
:10076000086008000068002848D12F480068002869
:1007700044D022E02748C068C4682000183000F048
:1007800030FE201D00F02DFE2B49E06A09688842EA
:1007900002D92949E06A08601422E16A51431A4AE1
:1007A0008818211D00F0F6FD2049E06A0968C96A31
:1007B000884202D3012027490860164800680028B3
:1007C00001D1012000E000200028D3D0002C01D06E
:1007D000FFF7F9FE1E480568002D0DD0C046FFF753
:1007E00054FF002802D001201A4908606D1E002D18
:1007F000F5D10020164908601648006800F078FE20
:10080000300070BC08BC184760000040B0000040D9
:10081000C4000040D8000040EC000040000100404F
:100820003C000040400000400C000040040000403C
:100830001800004028000040140000402C00004038
:100840000800004038000040100000402400004034
:100850001C00004020000040F8B505000E00F848DC
:100860000768F8480068001D00F0BBFD681C08D14F
:10087000002E06D0F3480168091DF34800F08AFDF8
:100880001AE07C19EF4800684460BC4207D2ED488A
:100890000168091DED48006800F088FD0CE0E9489A
:1008A0000168091DEA48006800F080FDE948006819
:1008B000844201D2E7480460F8BC08BC1847E64807
:1008C0000068401CE44908607047F3B581B004003B
:1008D00000200090FFF7F3FFD948066821680298CE
:1008E0000D182068B04207D92068A8420BD9B5423C
:1008F00009D90120009006E02068A84201D8B5423D
:1009000001D90120009025600098002803D0A81B81
:100910000021FFF7A1FFFFF71AFF0700002F01D109
:1009200001F0ACF80098FEBC08BC184770B5040094
:100930000025002C08D0FFF7C2FF00212000FFF7A0
:100940008BFFFFF704FF0500002D01D101F096F8A1
:1009500070BC08BC184770B5040000F0BEFD002C48
:1009600002D1B848006800E020000600F56A00F0F7
:10097000BFFD280070BC08BC184710B4010000235C
:10098000002902D1AF4C246800E00C002200D06A9C
:1009900010BC7047FEB507000D0000200090042D2C
:1009A00000D3032500F099FD002F02D1A54800686F
:1009B00000E038000400E66AAE423ED0B5420BD9F2
:1009C000A048006884420DD09E480068C06AA842D2
:1009D00008D80120009005E09A480068844201D1BF
:1009E00001200090E06A0190E562A069C00FC00795
:1009F00002D10420401BA061616914220198504378
:100A0000964A8018814201D1012000E00020002890
:100A100012D0201D00F0E5FC9149E06A0968884287
:100A200002D98F49E06A08601422E16A51438B4A77
:100A30008818211D00F0AEFCC04600F059FDFEBC38
:100A400008BC184784480068002803D00120854965
:100A5000086027E00020834908608148016800E0C1
:100A6000491E142048437D4A1058002801D1012016
:100A700000E000200028F3D114224A43774BD0181D
:100A8000426852684260020008324368934202D1D1
:100A90004268526842604268D2686A4B1A60704885
:100AA0000160C046704770B5050000F016FD002DCE
:100AB00002D16448006800E028000400201D00F016
:100AC00090FCA06A002803D02000183000F089FCB8
:100AD000211D5D4800F05EFC002009E0210040314E
:100AE000095C012903D10022210040310A54401C35
:100AF0000128F3DB00F0FCFC5B480068002805D00F
:100B000000F0EBFCFFF75FFD00F0F2FC4D480068E1
:100B1000844212D154480068002802D000F0AEFF91
:100B20000BE04948006851490968884203D1002018
:100B30004449086001E0FFF785FF70BC08BC184716
:100B400010B4010000200A003F4C5369A34201D1B8
:100B5000012300E00023002B11D0454C936AA342EF
:100B600001D1012300E00023002B08D1936A002B60
:100B700001D1012300E00023002B00D0012010BC94
:100B8000704770B505002C002E48006884421FD0C5
:100B9000002C1DD000F0A1FC2000FFF7D1FF0028A1
:100BA00014D0201D00F01DFC2D49E06A0968884220
:100BB00002D92B49E06A08601422E16A5143274AAE
:100BC0008818211D00F0E6FB1E48006800F090FC2C
:100BD00070BC08BC1847F8B5050000262C0000279B
:100BE0002000FFF7ADFF002826D01B480068002832
:100BF0001DD11449E06A0968C96A884203D30126F5
:100C0000012018490860201D00F0EBFB1449E06A40
:100C10000968884202D91249E06A08601422E16A30
:100C200051430E4A8818211D00F0B4FB04E0210056
:100C300018310F4800F0AEFB3000F8BC08BC184774
:100C4000100000400400004000010040400000404F
:100C50003C0000402C000040380000406000004094
:100C60001400004020000040180000400C0000402C
:100C7000D800004010B516E000F02FFCFC48C0681A
:100C8000C468201D00F0ADFBFA480068401EF94919
:100C90000860F9480068401EF749086000F028FC29
:100CA0002000FFF7A6FCF44800680028E4D110BC3F
:100CB00008BC1847C046FFF7DDFF00F0DFFEFAE78B
:100CC0001CB5EE4800210B005A2200910190ECA1C6
:100CD000ED48FFF748FC0400012C0CD100F0D8FED1
:100CE000A01EEA4908600120E94908600020E9499E
:100CF000086000F0E8FBE84800681CBC08BC184726
:100D000010B500F0C5FE0020E149086000F0E4FBEA
:100D100010BC08BC184710B500F0DFFBDD480468C4
:100D200000F0E6FB200010BC08BC18470021D94A9F
:100D300010687047CF48006870470100002902D151
:100D4000D648006800E00800020010003430704708
:100D500070B50400FFF7B3FDD14800680019D04911
:100D60000860FFF7F4FC0500280070BC08BC1847B9
:100D700070B505000C00C94801681831280000F062
:100D800015FB01212000FFF767FD70BC08BC184768
:100D900070B506000C0015000120C0072043BF49B4
:100DA00009688861BD4801681831300000F0F2FA26
:100DB00001212800FFF750FD70BC08BC184770B532
:100DC0000600F068C4682000183000F00AFBB5483F
:100DD0000068002813D1201D00F003FBB249E06A2F
:100DE0000968884202D9B049E06A08601422E16AC1
:100DF0005143AE4A8818211D00F0CCFA04E02100CE
:100E00001831AB4800F0C6FAA449E06A0968C96A1B
:100E1000884204D901250120A649086000E0002588
:100E2000280070BC08BC184770B505000E000120F2
:100E3000C00730432860EC68280000F0D2FA201D7B
:100E400000F0CFFA9849E06A0968884202D99649C9
:100E5000E06A08601422E16A5143944A8818211D0F
:100E600000F098FA8D49E06A0968C96A884202D997
:100E700001209049086070BC08BC184710B50400F8
:100E800000F02BFB8C48006820608248006860609E
:100E900000F02EFB10BC08BC1847874909680160A8
:100EA0007C4909684160704770B506000C0000F08D
:100EB00014FB784802687068131A2068401C01D13E
:100EC000002519E07C4930680968884206D07068BE
:100ED000904203D80125002020600DE02068984250
:100EE00007D92068C01A20603000FFF7D6FF002520
:100EF00002E000202060012500F0FAFA280070BC12
:100F000008BC184701206B490860704763490968AD
:100F1000886962490968C96A0422511A5F4A1268DD
:100F200091617047F8B504000F00160000F0D5FA83
:100F3000A1005A4800683C30405800280BD10121DC
:100F40005648006840300155002E04D03000FFF7AD
:100F500083FC00F093FD00F0CBFA00F0BEFAA10094
:100F60004E4800683C304558002D0ED0002F06D06A
:100F70000021A200494800683C30815005E0681E0D
:100F8000A200464909683C31885000214348006866
:100F90004030015500F0ACFA2800F8BC08BC1847F6
:100FA000FFB581B004000F001D0000F096FA3B4829
:100FB00000684030005D022814D0A200374909685B
:100FC0003C3150180168B943016001213348006881
:100FD000403001550A98002804D00A98FFF73CFCDD
:100FE00000F04CFD00F084FA00F077FA002D05D0F7
:100FF000A1002A4800683C30405828602748006813
:101000004030005D022801D0002609E0A2002349FB
:1010100009683C315018026803998A43026001262E
:1010200000211E4800684030015500F061FA300090
:1010300005B0F0BC08BC1847FFB583B00D00160022
:101040001F0001200290039C00F047FA0C98002832
:1010500005D0A90020003C3041580C9801602000C8
:101060004030405D0190022120004030415525E094
:10107000EC0000400C000040080000403000004040
:1010800049444C4500000000B50C00002C00004015
:1010900018000040100000403400004004000040F0
:1010A0001C00004038000040140000406000004078
:1010B000D800004020000040240000403B0000F029
:1010C000FDFC0528040E181D2900A90020003C3055
:1010D00040583043AA0021003C3188501BE0A90051
:1010E00020003C304058401CAA0021003C31885070
:1010F00011E0A90020003C3046500CE00198022885
:1011000004D0A90020003C30465001E000200290AD
:1011100001E000E0C046C0460198012814D1201D1E
:1011200000F05FF98D49E06A0968884202D98B496D
:10113000E06A08601422E16A5143894A8818211D37
:1011400000F028F98748006800F0D2F9029807B04B
:10115000F0BC08BC1847FFB583B00D0016001F0097
:1011600001200190039C002000900C98002805D0DD
:10117000A90020003C3041580C980160200040300C
:10118000405D029002212000403041553B0000F0BC
:1011900095FC0528040E181D2900A90020003C30EC
:1011A00040583043AA0021003C3188501BE0A90080
:1011B00020003C304058401CAA0021003C3188509F
:1011C00011E0A90020003C3046500CE002980228B3
:1011D00004D0A90020003C30465001E000200190DE
:1011E00001E000E0C046C046029801282BD15E48CD
:1011F0000068002813D1201D00F0F3F85749E06A79
:101200000968884202D95549E06A08601422E16AF7
:101210005143534A8818211D00F0BCF804E0210016
:101220001831524800F0B6F84E49E06A0968C96AB8
:10123000884208D90D98002802D001210D9801603C
:1012400001204B490860019807B0F0BC08BC184762
:10125000FEB505000E0017002C00002000902000B5
:101260004030805D01900221200040308155B10066
:10127000001F4058401CB20021003C3188500198AA
:10128000012829D138480068002813D1201D00F01A
:10129000A8F83249E06A0968884202D92F49E06A11
:1012A00008601422E16A51432D4A8818211D00F07C
:1012B00071F804E0210018312C4800F06BF829493E
:1012C000E06A0968C96A884206D9002F01D0012066
:1012D0003860012026490860FEBC08BC1847F8B5F4
:1012E00006000C00002E02D11E48006800E030000D
:1012F000070000F0F2F838004030005D022805D108
:101300000021380040300155012500E0002500F0A3
:10131000EFF82800F8BC08BC1847F8B506000C0028
:101320001700002E02D10F48006800E030000500D1
:1013300000F0D3F8A10028003C3040580090A100F4
:1013400028003C304058B843A20029003C31885066
:1013500000F0CEF80098F8BC08BC18471400004014
:10136000600000400400004038000040D800004009
:10137000200000400100083141600021C943816024
:1013800001000831C1600161002101607047002146
:101390000161704742684A6093688B609368596046
:1013A0009160086103685B1C0360704710B4020021
:1013B0000B685C1C01D1106907E01000083000E0E8
:1013C0004068446824689C42FAD944684C604C6880
:1013D000A160886041600A611468641C146010BCDC
:1013E000704701000A694B6888689860081D09C841
:1013F00058605068884201D18868506000200861B8
:101400001068401E106010687047000030B4030080
:10141000001F0C1D0460001F3F4C0460001F036090
:10142000001F3E4C0460001F3D4C0460001F3D4CFB
:101430000460001F3C4C0460001F3C4C0460001F13
:101440003B4C0460001F3B4C0460001F3A4C04609E
:10145000001F3A4C0460001F394C0460001F394CD7
:101460000460001F64100460001F0260001F1F243E
:101470000460CC07E40F03D0202504682C430460EB
:10148000001F0024046030BC704700212E4AD16048
:101490002E4811008861032151615114C96810223E
:1014A00091432B4AD1601100096910221143284A47
:1014B00011612849284A11602421284A116001211C
:1014C000214A5160704710B5FFF7DFFF00F00EFAB8
:1014D000002010BC08BC1847704710B500F0D8FABF
:1014E0001F480068401C1E49086010BC08BC184713
:1014F00010B51B48006800280AD019480068401E33
:101500001749086008000068002801D100F0CCFAF3
:1015100010BC08BC18470000AAAAAAAA12121212EC
:1015200011111111101010100909090908080808F3
:101530000707070706060606050505050404040453
:101540000303030302020202004000E0983A000095
:1015500000F0FFFF6415000000F1FFFF00F2FFFF45
:10156000440000400F502DE9450100EB0100A0E3CD
:1015700010109FE5000081E50000A0E3D00F00E51A
:101580000F50BDE804F05EE2004000E04A4AD00897
:10159000C0004A4A10600022484B5A60484A494BF2
:1015A0005A6000221A600100454A4A601A000A6027
:1015B0007047F8B5040000200090FFF780F942481A
:1015C0000068002804D1FFF7E1FF01203E490860D0
:1015D000002C12D020000830A0420ED90834600739
:1015E000400F0821081A0019A04204D96007400FD3
:1015F000081A041902E0002400E00024002C32D074
:101600003248006884422ED82C4F3800056801E02B
:101610002F002D686868A04202D228680028F7D100
:10162000284885421FD03868083000902868386004
:101630006868001B102810D92E196868001B70609C
:101640006C6071681D4800E00068026852688A4258
:10165000FAD3026832600660C0461C4968680968AF
:10166000081A1A490860FFF772F80098F8BC08BC1D
:10167000184770B506003500002E16D0083D2C0026
:10168000FFF71DF961680D4800E0006802685268C4
:101690008A42FAD30268226004600C4960680968D3
:1016A00040180A490860FFF752F870BC08BC184798
:1016B00006480068704770471C0100405000004019
:1016C000F8170000580000404C000040480000405F
:1016D0007847C046013090E12100004A0020B0E385
:1016E000A03071E01A00003A203271E00F00003A99
:1016F000203471E00100003A00C0A0E3200000EABD
:10170000A03371E0810340200220B2E0203371E079
:10171000010340200220B2E0A03271E081024020AB
:101720000220B2E0203271E0010240200220B2E04B
:10173000A03171E0810140200220B2E0203171E04F
:10174000010140200220B2E0A03071E08100402081
:101750000220B2E0011050E00010A0310200A2E02F
:101760001EFF2FE1022111E20010614240C032E071
:1017700000006022203271E01D00003A203471E048
:101780000F00003A0113A0E1203471E03F2382E30F
:101790000B00003A0113A0E1203471E03F2682E300
:1017A0000700003A0113A0E1203471E03F2982E3F1
:1017B0000113A0213F2C8223003071E21D00002A7A
:1017C0002113A021A03371E0810340200220B2E068
:1017D000203371E0010340200220B2E0A03271E02A
:1017E000810240200220B2E0203271E0010240205C
:1017F0000220B2E0A03171E0810140200220B2E07D
:10180000203171E0010140200220B2E0EBFFFF2A0D
:10181000A03071E0810040200220B2E0011050E0D1
:101820000010A0310200A2E0CCCFB0E10000604285
:10183000001061221EFF2FE1CCCFB0E1000060421A
:1018400001402DE90000B0E30000A0E10240BDE846
:101850001EFF2FE170477047704700000E50A0E157
:10186000180000EB05E0A0E10050B0E10D10A0E190
:101870000A30A0E10700C0E300D0A0E160D08DE213
:1018800020402DE961FAFFEB2040BDE80060A0E3B5
:101890000070A0E30080A0E300B0A0E30710C1E364
:1018A00005C0A0E1C009ACE8C009ACE8C009ACE8DB
:1018B000C009ACE801D0A0E11EFF2FE10400C04642
:1018C000C0462000FEF79AFC00009FE51EFF2FE1B6
:1018D0001419004001C08FE21CFF2FE101491820BC
:1018E000ABDFFEE7260002001EFF2FE17847C0466F
:1018F0006C019FE5000090E500E090E564019FE544
:101900000200BEE8001080E50100BEE800F06FE1D3
:10191000FF7FDEE80000A0E13CE09EE504F05EE22F
:10192000000000EF1EFF2FE104E08EE201002DE930
:1019300000204DE90000A0E104D04DE20100BDE827
:10194000004020E900E0A0E10100BDE8FF7F4EE992
:101950000000A0E13CE04EE200004FE101002EE972
:1019600000019FE5000090E501002EE9F0009FE5F1
:10197000001090E500E081E5EC009FE50FE0A0E1BC
:1019800010FF2FE1D8009FE5000090E500E090E512
:10199000D0009FE50200BEE8001080E50100BEE82F
:1019A00000F06FE1FF7FDEE80000A0E13CE09EE593
:1019B00004F05EE201002DE900204DE90000A0E105
:1019C00004D04DE20100BDE8004020E900E0A0E1C4
:1019D0000100BDE8FF7F4EE90000A0E13CE04EE2DF
:1019E00000004FE101002EE978009FE5000090E53E
:1019F00001002EE968009FE5001090E500E081E518
:101A000068009FE50FE0A0E110FF2FE1000050E328
:101A10000200000A50009FE50FE0A0E110FF2FE157
:101A20000100A0E348109FE5000081E544009FE528
:101A3000000080E528009FE5000090E500E090E5CB
:101A400020009FE50200BEE8001080E50100BEE82E
:101A500000F06FE1FF7FDEE80000A0E13CE09EE5E2
:101A600004F05EE20400004044000040450A00002B
:101A70008B060000004000E030F0FFFF7847C046D2
:101A8000A6FFFFEA00C09FE51CFF2FE18B060000C8
:101A90007847C04600000FE1801080E301F021E1AB
:101AA000800000E21EFF2FE17847C04600000FE1F2
:101AB0008000C0E300F021E11EFF2FE17847C0461F
:101AC00001C05EE50C0053E10100003A0C30DEE796
:101AD000000000EA0330DEE783C08EE01CFF2FE148
:101AE00002000000041B0000000000406000000035
:101AF00048010000641B000060000040381F000027
:101B00007001000000000000000000000000000064
:101B100000000000000000000000000000000000C5
:101B200000000000000000000000000000000000B5
:101B300000000000000000000300000000000000A2
:101B400000000000000000000F270000F817000050
:101B50000000000000000000000000000000000085
:041B60000000000081
:0400000500000104F2
:00000001FF
