S01800004144435F4F6E496E74657272757074732E73726563E8
S1130000FDC000001BC1000019C1000017C10000A1
S113001015C1000013C1000011C100000FC1000090
S11300200DC100000BC1000009C1000007C10000A0
S113003005C1000003C1000001C10000FFC00000B1
S1130040FDC00000FBC00000F9C00000F7C00000C4
S1130050F5C00000F3C00000F1C00000EFC00000D4
S1130060EDC00000EBC00000E9C00000E7C00000E4
S1130070E5C00000E3C00000E1C00000DFC00000F4
S1130080DDC00000DBC00000D9C00000D7C0000004
S1130090D5C00000D3C00000D1C0000047C4000098
S11300A077C40000A7C40000D7C40000C7C0000084
S11300B0C5C00000C3C00000C1C00000BFC0000034
S11300C0BDC00000BBC00000B9C00000B7C0000044
S11300D0B5C00000B3C00000B1C00000AFC0000054
S11300E0ADC00000ABC00000A9C00000A7C0000064
S11300F0A5C00000A3C00000A1C000009FC0000074
S11301009DC000009BC0000099C0000097C0000083
S113011095C0000093C0000091C000003FC30000E0
S11301206FC300009FC30000CFC3000087C000005E
S113013085C0000083C0000081C000007FC00000B3
S11301407DC000007BC0000079C0000077C00000C3
S113015075C0000073C0000071C000006FC00000D3
S11301606DC000006BC0000069C0000067C00000E3
S113017065C0000063C0000061C000005FC00000F3
S11301805DC000005BC0000059C0000057C0000003
S113019055C0000053C0000051C000004FC0000013
S11301A04DC000004BC0000049C0000047C0000023
S11301B045C0000043C0000041C000003FC0000033
S11301C03DC000003BC0000039C0000037C0000043
S11301D035C0000033C0000031C000002FC0000053
S11301E02DC000002BC0000029C0000027C0000063
S11301F025C0000023C0000021C0000011241FBE40
S1130200CFEFCDBFDFE5DEBF00E00CBF10E2A0E022
S1130210B0E2EEECF7E100E00BBF02C007900D92F4
S1130220A631B107D9F720E2A6E1B0E201C01D92E0
S1130230A233B207E1F7D8D50C94E50BE1CECF9306
S1130240DF931F92CDB7DEB78091202090912120BB
S1130250E0911820F0911920BE016F5F7F4F19952E
S11302608981082E000C990B0F90DF91CF9108958E
S1130270811522E0920761F48091172091E0980F94
S113028090931720811112C062E081E06EC5089539
S11302908034924059F48091162091E0980F909305
S11302A01620811103C062E082E05FC508958115C4
S11302B022E0920759F480911720815080931720EF
S11302C0811111C062E081E066C5089580349240D6
S11302D051F480911620815080931620811103C01F
S11302E062E082E058C50895EF92FF921F93CF9386
S11302F0DF931F921F92CDB7DEB77C018FB789833E
S1130300F8941981C701B4DFF7018081816080838B
S11303101FBF809123208F3F09F4FFCF8FB78A83BB
S1130320F8949A81E2E2F0E281818F5F81839FBF3A
S11303300F900F90DF91CF911F91FF90EF90089550
S1130340FC01918195FFFDCF608380E090E00895EA
S1130350FC0191819923ECF7808108954F925F927B
S11303606F927F928F929F92AF92BF92EF92FF9281
S11303700F931F93CF937C014A015B01280139013C
S1130380FC01848182FF16C0D901C801689412F867
S1130390B695A795979587951694D1F7B901A801B5
S11303A0032E36E176956795579547953A95D1F79B
S11303B0302D15C0D901C801689413F8B695A795D6
S11303C0979587951694D1F7B901A801032E37E1C3
S11303D076956795579547953A95D1F7302D8815B9
S11303E09905AA05BB0508F4A2C084169506A606BD
S11303F0B70608F49EC0F701848182FD04C0880C0E
S1130400991CAA1CBB1CC301B201A501940175D59A
S11304102F3F31054105510508F48DC08FEF90E061
S1130420A0E0B0E0C9EF05C0281739074A075B0709
S113043058F0880F991FAA1FBB1FCD3F0CF4816091
S1130440CF5FC73089F74DC0CC230CF04AC0D5012B
S1130450C401880F991FAA1FBB1F880F991FAA1FC9
S1130460BB1F880F991FAA1FBB1F481A590A6A0A83
S11304707B0ACE3FECF48DEF9FEF8C1B9109C7FDF7
S1130480939504C0440C551C661C771C8A95D2F7BE
S1130490D501C401B695A79597958795BC01CD0163
S11304A0640D751D861D971DA501940126D535C0C3
S11304B083E08C0FA501940104C0220F331F441F55
S11304C0551F8A95D2F7DA01C901B695A795979574
S11304D08795BC01CD01640D751D861D971D0DD535
S11304E01CC083E08C0FA501940104C0220F331FAC
S11304F0441F551F8A95D2F7DA01C901B695A7950D
S113050097958795BC01CD01640D751D861D971DBA
S1130510F4D42150310941095109832F8F70C295B8
S1130520C07FC82BF701C783268381E018C080E011
S113053016C080E014C0D501C401880F991FAA1FFA
S1130540BB1F880F991FAA1FBB1F880F991FAA1FC3
S1130550BB1F481A590A6A0A7B0AC9EF8CCFCF918C
S11305601F910F91FF90EF90BF90AF909F908F904D
S11305707F906F905F904F9008950F931F93CF9348
S1130580DF93EC018B01009709F4E6C0803C9105F0
S113059021F460E180E0E9D3DFC0C03881E0D8070E
S11305A021F462E080E0E1D3D7C0C115E1E0DE07C9
S11305B021F461E080E0D9D3CFC0C038F3E0DF0795
S11305C021F461E081E0D1D3C7C0C03983E0D8070A
S11305D021F461E082E0C9D3BFC0C115E2E0DE07C7
S11305E021F462E081E0C1D3B7C0C034F2E0DF0798
S11305F021F462E082E0B9D3AFC0C03283E0D8070F
S113060021F464E082E0B1D3A7C0C115E8E0DE07BD
S113061021F461E083E0A9D39FC0C115F9E0DF07AD
S113062021F461E084E0A1D397C0C1158AE0D80722
S113063021F461E085E099D38FC0C115EBE0DE07BA
S113064021F461E086E091D387C0C034F8E0DF078D
S113065021F462E083E089D37FC0C03489E0D80705
S113066021F462E084E081D377C0C034EAE0DE079D
S113067021F462E085E079D36FC0C039F8E0DF0788
S113068021F464E083E071D367C0C03989E0D807FE
S113069021F464E084E069D35FC0C039EAE0DE0796
S11306A021F464E085E061D357C0C039FBE0DF0783
S11306B021F464E086E059D34FC0C03C88E0D807F9
S11306C021F468E083E051D347C0C03CE9E0DE0791
S11306D021F468E084E049D33FC0C03AF8E0DF0782
S11306E021F460E183E041D337C0C03A89E0D80700
S11306F021F460E184E039D32FC0C03AEAE0DE0798
S113070021F460E185E031D327C0C03AFBE0DF0784
S113071021F460E186E029D31FC0C03B88E0D807FC
S113072021F460E283E021D317C0C03BE9E0DE0797
S113073021F460E284E019D30FC0C038F4E0DF078D
S113074021F460E483E011D307C0C03A84E0D80701
S113075019F460E485E009D38D818F738D83F801EA
S113076095818481892B9681911198E0892B8D83C1
S1130770F801408151816281738100E814E82EE11F
S113078030E0CE01EBDD9C8198609C839C8190617C
S11307909C83DF91CF911F910F9108951F920F9227
S11307A00FB60F9211240BB60F922F933F934F93D2
S11307B05F936F937F938F939F93AF93BF93EF93C5
S11307C0FF934091240250912502E0911C20F09166
S11307D01D2061E080E092E01995FF91EF91BF91B7
S11307E0AF919F918F917F916F915F914F913F91C5
S11307F02F910F900BBE0F900FBE0F901F90189566
S11308001F920F920FB60F9211240BB60F922F93D3
S11308103F934F935F936F937F938F939F93AF9384
S1130820BF93EF93FF9340912C0250912D02E091DE
S11308301C20F0911D2062E080E092E01995FF9168
S1130840EF91BF91AF919F918F917F916F915F9144
S11308504F913F912F910F900BBE0F900FBE0F90B1
S11308601F9018951F920F920FB60F9211240BB67A
S11308700F922F933F934F935F936F937F938F9335
S11308809F93AF93BF93EF93FF93409134025091A2
S11308903502E0911C20F0911D2064E080E092E09C
S11308A01995FF91EF91BF91AF919F918F917F9196
S11308B06F915F914F913F912F910F900BBE0F90CD
S11308C00FBE0F901F9018951F920F920FB60F92A4
S11308D011240BB60F922F933F934F935F936F9313
S11308E07F938F939F93AF93BF93EF93FF93409125
S11308F03C0250913D02E0911C20F0911D2068E0E3
S113090080E092E01995FF91EF91BF91AF919F9193
S11309108F917F916F915F914F913F912F910F90A4
S11309200BBE0F900FBE0F901F9018951F920F9241
S11309300FB60F9211240BB60F922F933F934F9340
S11309405F936F937F938F939F93AF93BF93EF9333
S1130950FF934091640250916502E0911A20F09156
S11309601B2061E080E492E01995FF91EF91BF9123
S1130970AF919F918F917F916F915F914F913F9133
S11309802F910F900BBE0F900FBE0F901F901895D4
S11309901F920F920FB60F9211240BB60F922F9342
S11309A03F934F935F936F937F938F939F93AF93F3
S11309B0BF93EF93FF9340916C0250916D02E091CD
S11309C01A20F0911B2062E080E492E01995FF91D7
S11309D0EF91BF91AF919F918F917F916F915F91B3
S11309E04F913F912F910F900BBE0F900FBE0F9020
S11309F01F9018951F920F920FB60F9211240BB6E9
S1130A000F922F933F934F935F936F937F938F93A3
S1130A109F93AF93BF93EF93FF93409174025091D0
S1130A207502E0911A20F0911B2064E080E492E0CA
S1130A301995FF91EF91BF91AF919F918F917F9104
S1130A406F915F914F913F912F910F900BBE0F903B
S1130A500FBE0F901F9018951F920F920FB60F9212
S1130A6011240BB60F922F933F934F935F936F9381
S1130A707F938F939F93AF93BF93EF93FF93409193
S1130A807C0250917D02E0911A20F0911B2068E0D5
S1130A9080E492E01995FF91EF91BF91AF919F91FE
S1130AA08F917F916F915F914F913F912F910F9013
S1130AB00BBE0F900FBE0F901F901895BF92CF9250
S1130AC0DF92EF92FF920F931F93CF93DF931F92C6
S1130AD0CDB7DEB78C017B01811522E0920771F45A
S1130AE061E270E082E06CD1C82ED12C60E270E04B
S1130AF082E066D1DC2CCC24C82A10C08034924019
S1130B00C1F565E270E082E05BD1C82ED12C64E2CD
S1130B1070E082E055D1DC2CCC24C82A8FB78983BD
S1130B20F894B980C801A4DBF801808192E0908335
S1130B30C486D586F70125813681F801208F318F4F
S1130B40F7019281F8019283F7019481F80194836B
S1130B50F7019381F8019383F7019181F80191835F
S1130B608170F7019081892BF8018083C8019FDB94
S1130B70BFBE0F90DF91CF911F910F91FF90EF9027
S1130B80DF90CF90BF900895DF92EF92FF920F9382
S1130B901F93CF93DF931F92CDB7DEB78C017B01F8
S1130BA08FB78983F894D980C80162DBF80180810A
S1130BB0807CF7018083F801808D918DF701858316
S1130BC09683F8018281F7018283F8018481F70119
S1130BD08483F8018381F7018383F8018181F7011C
S1130BE08183C80164DBDFBE0F90DF91CF911F9139
S1130BF00F91FF90EF90DF900895AF92BF92CF9244
S1130C00DF92EF92FF920F931F93CF93DF931F9284
S1130C10CDB7DEB76C01B62E7A01862F837029F426
S1130C20962F9695969582E002C0962F80E090FFCD
S1130C308F5F8601005E1F4F98E0899F000D111D94
S1130C4011248FB78983F894A980C60111DBF701B9
S1130C508081F8018083F7018281F8018283F701A2
S1130C608181F8018183B0FE04C0F7018381F8011A
S1130C708683C6011CDBAFBE0F90DF91CF911F911D
S1130C800F91FF90EF90DF90CF90BF90AF900895B9
S1130C90AF92BF92CF92DF92EF92FF920F931F9386
S1130CA0CF93DF931F92CDB7DEB76C01B62E7A01D6
S1130CB0862F837029F4962F9695969582E002C02C
S1130CC0962F80E090FF8F5F8601005E1F4F98E0B3
S1130CD0899F000D111D11248FB78983F894A98071
S1130CE0C601C6DAF8018081F7018083F8018281A8
S1130CF0F7018283F8018181F7018183B0FE04C08A
S1130D00F8018681F7018383C601D1DAAFBE0F9063
S1130D10DF91CF911F910F91FF90EF90DF90CF90D3
S1130D20BF90AF900895682F80912020909121204A
S1130D30E0911E20F0911F20199599231CF081E069
S1130D4090E008958FEF9FEF08958FEF80937000E8
S1130D508093710080937200809373008093740079
S1130D6080937500809376000895CF93DF931F924C
S1130D70CDB7DEB79FB79983F8949981E82FF0E057
S1130D80E059FF4F60958081682360839FBF0F9077
S1130D90DF91CF910895CF93DF931F92CDB7DEB744
S1130DA09FB79983F8949981E82FF0E0E059FF4FB9
S1130DB08081682B60839FBF0F90DF91CF9108954E
S1130DC04091CA01E62FF72F8093CA018491409382
S1130DD0CA010895CF93DF93EB01BADA8883DF91D8
S1130DE0CF910895ADCA0895CF93DF93CDB7DEB701
S1130DF02B97CDBFDEBFA9DFBE016F5F7F4F80E0C1
S1130E0092E0C2DEAE01485F5F4F61E080E092E0B5
S1130E103FDF8A819B819F789B83817E84608A8364
S1130E201C821D8281E0888718E01987BE016F5FEC
S1130E307F4F80E092E042DEAE01485F5F4F61E0A9
S1130E4080E092E0DADE80EA9AE0809320209093BA
S1130E50212082EF96E080931E2090931F208AEE3B
S1130E6096E08093182090931920E6E0F0E28481C4
S1130E708D8385818E8386818F8380819181A281F8
S1130E80B38189839A83AB83BC8360E185E06DDFA2
S1130E90BE016F5F7F4F80EA9AE06FDB6FE171E024
S1130EA083E996E04CD01093810680E092E01CDA4E
S1130EB000E012E0DD24D3940F2EFDE0EF2EF0E2EB
S1130EC0FF2EF02D8FB78983F8949981F8018081E2
S1130ED0846080839FBFF801868180FFFCCFD68227
S1130EE084A195A199279F938F93FF92EF9271D03C
S1130EF00F900F900F900F90E5CFA1E21A2EAA1B2E
S1130F00BB1BFD010DC0AA1FBB1FEE1FFF1FA217B5
S1130F10B307E407F50720F0A21BB30BE40BF50BB2
S1130F20661F771F881F991F1A9469F7609570953B
S1130F30809590959B01AC01BD01CF0108950F935D
S1130F401F93CF93DF93009731F46115710519F462
S1130F5080E090E039C08B01EC016EE070E081E04C
S1130F6090E041D2FC01892B99F380E88383011539
S1130F70110571F00287138781E88383809128200B
S1130F8090912920892B21F4E0932820F0932920A3
S1130F902097C9F0C087D187838182608383809141
S1130FA02A2090912B20892B71F4E0932A20F0932E
S1130FB02B2080912C2090912D20892B21F4E093DB
S1130FC02C20F0932D20CF01DF91CF911F910F9111
S1130FD00895CF93DF93CDB7DEB7AE014A5F5F4F7D
S1130FE0FA0161917191AF0180912A2090912B2097
S1130FF003D0DF91CF9108952F923F924F925F9249
S11310006F927F928F929F92AF92BF92CF92DF9214
S1131010EF92FF920F931F93CF93DF93CDB7DEB779
S11310202B97CDBFDEBF6C017B018A01FC011682C8
S11310301782838181FFBFC1CE0101963C01F60175
S11310409381F70193FD859193FF81917F0188231B
S113105009F4ADC1853239F493FD859193FF8191F3
S11310607F01853221F4B60190E015D3E8CF912CAD
S1131070212C312CFFE1F315D8F08B3279F038F4C0
S1131080803279F08332A1F4232D20611DC08D328A
S113109061F0803369F4232D216016C0832D8260B2
S11310A0382EE32DE4603E2E2AC0F32DF8601DC0D7
S11310B037FC2DC020ED280F2A3040F08E32B9F4D1
S11310C036FC75C1232D2064322E19C036FE06C0AD
S11310D08AE0989E200D1124922E11C0EAE02E9EE3
S11310E0200D1124222EF32DF0623F2E08C08C36E1
S11310F021F4832D8068382E02C0883641F4F7012C
S113110093FD859193FF81917F018111B3CF982F36
S11311109F7D9554933028F40C5F1F4F9FE3998370
S11311200DC0833631F0833771F0833509F055C033
S113113020C0F801808189830E5F1F4F8824839427
S1131140912C530112C02801F2E04F0E511CF801FA
S1131150A080B18036FE03C0692D70E002C06FEF3D
S11311607FEFC5018DD24C018201F32DFF773F2E15
S113117015C0280122E0420E511CF801A080B18064
S113118036FE03C0692D70E002C06FEF7FEFC5012A
S113119065D24C01F32DF0683F2E820133FC19C057
S11311A0822D90E088169906A0F4B60180E290E0C2
S11311B072D22A94F5CFF50137FC859137FE8191DF
S11311C05F01B60190E067D221102A9421E0821ACF
S11311D091088114910479F7E1C0843611F08936BD
S11311E039F5F80137FE07C06081718182819381EE
S11311F00C5F1F4F08C060817181072E000C880BA3
S1131200990B0E5F1F4FF32DFF763F2E97FF09C0FA
S113121090958095709561957F4F8F4F9F4FF068A3
S11312203F2E2AE030E0A30172D2882E861844C0F3
S1131230853731F4232D2F7EB22E2AE030E025C0ED
S1131240932D997FB92E8F36C1F018F4883579F033
S1131250AEC0803719F0883721F0A9C0E92FE061CA
S1131260BE2EB4FE0DC0FB2DF460BF2E09C034FEAB
S11312700AC0292F2660B22E06C028E030E005C03F
S113128020E130E002C020E132E0F801B7FE07C0FF
S113129060817181828193810C5F1F4F06C06081E0
S11312A0718180E090E00E5F1F4FA30130D2882E41
S11312B08618FB2DFF773F2E36FE0DC0232D2E7F83
S11312C0A22E891458F434FE0BC032FC09C0832DBD
S11312D08E7EA82E05C0B82CA32C03C0B82C01C048
S11312E0B92CA4FE0FC0FE01E80DF11D80818033EE
S11312F021F49A2D997EA92E09C0A2FE06C0B394AA
S1131300B39404C08A2D867809F0B394A3FC10C06A
S1131310A0FE06C0B21480F4280C922C9B180DC0B9
S1131320B21458F4B60180E290E0B5D1B394F8CF8A
S1131330B21418F42B1802C0982C212CA4FE0FC050
S1131340B60180E390E0A7D1A2FE16C0A1FC03C0C1
S113135088E790E002C088E590E0B6010CC08A2DD1
S1131360867851F0A1FE02C08BE201C080E2A7FCA6
S11313708DE2B60190E08FD1891430F4B60180E398
S113138090E089D19A94F8CF8A94F301E80DF11D85
S11313908081B60190E07FD18110F6CF222009F43C
S11313A04ECEB60180E290E076D12A94F7CFF601D2
S11313B08681978102C08FEF9FEF2B96CDBFDEBF52
S11313C0DF91CF911F910F91FF90EF90DF90CF901D
S11313D0BF90AF909F908F907F906F905F904F9051
S11313E03F902F9008950F931F93CF93DF93869F81
S11313F08001879F100D969F100D1124C8010DD0F8
S1131400EC01009721F0A80160E070E032D1CE0138
S1131410DF91CF911F910F9108950F931F93CF9355
S1131420DF938230910510F482E090E0E091302067
S1131430F091312020E030E0A0E0B0E0309719F1E5
S1131440408151810281138148175907C8F08417DC
S1131450950769F4109731F012960C93129713962E
S11314601C9327C0009330201093312022C02115F3
S1131470310519F04217530718F49A01BD01EF0121
S1131480DF01F801DBCF21153105F9F0281B390BF9
S11314902430310580F48A819B816115710521F026
S11314A0FB018283938304C0809330209093312086
S11314B0FE01329644C0FE01E20FF31F8193919323
S11314C022503109288339833AC020912E2030914B
S11314D02F20232B41F420910220309103202093CC
S11314E02E2030932F2020910020309101202115AF
S11314F0310541F42DB73EB74091042050910520A9
S1131500241B350BE0912E20F0912F20E217F307D6
S1131510A0F42E1B3F0B2817390778F0AC014E5F5F
S11315205F4F2417350748F04E0F5F1F40932E205E
S113153050932F208193919302C0E0E0F0E0CF011B
S1131540DF91CF911F910F910895CF93DF9300976F
S113155009F481C0FC01329712821382A0913020D9
S1131560B0913120109781F420813181820F931F33
S113157020912E2030912F202817390751F5E09320
S11315802E20F0932F2067C0ED0120E030E0CE172D
S1131590DF0740F44A815B819E0141155105F1F05A
S11315A0EA01F5CFC283D38340815181840F951F13
S11315B0C817D90759F488819981840F951F029619
S11315C0808391838A819B81828393832115310552
S11315D029F4E0933020F09331203DC0E901EA83FF
S11315E0FB8349915991C40FD51FEC17FD0761F492
S11315F080819181840F951F0296E90188839983E4
S1131600828193818A839B83E0E0F0E012968D913E
S11316109C911397009719F0FD01DC01F7CF8D9190
S11316209C9111979D012E5F3F4F820F931F209134
S11316302E2030912F202817390769F4309729F488
S1131640109230201092312002C012821382A09393
S11316502E20B0932F20DF91CF910895FC010590A7
S1131660615070400110D8F7809590958E0F9F1FA0
S11316700895DC0101C06D9341505040E0F7089596
S1131680FC016150704001900110D8F7809590954D
S11316908E0F9F1F08950F931F93CF93DF93FB012A
S11316A0238121FD03C08FEF9FEF2CC022FF16C0C2
S11316B046815781248135814217530744F4A08120
S11316C0B1819D012F5F3F4F208331838C9326810D
S11316D037812F5F3F4F2683378314C08B01EC0182
S11316E0FB010084F185E02D1995892BE1F6D801E1
S11316F016968D919C911797019616968D939C93AF
S11317001797CE01DF91CF911F910F910895FA01A0
S1131710AA27283051F1203181F1E8946F936E7F2C
S11317206E5F7F4F8F4F9F4FAF4FB1E03ED0B4E01D
S11317303CD0670F781F891F9A1FA11D680F791F5E
S11317408A1F911DA11D6A0F711D811D911DA11D6F
S113175020D009F468943F912AE0269F112430197F
S1131760305D3193DEF6CF010895462F4770405D1A
S11317704193B3E00FD0C9F7F6CF462F4F70405DC9
S11317804A3318F0495D31FD4052419302D0A9F724
S1131790EACFB4E0A6959795879577956795BA951E
S11317A0C9F700976105710508959B01AC010A2EE4
S11317B006945795479537952795BA95C9F7620FBB
S11117C0731F841F951FA01D0895F894FFCF7A
S11317CE0000322020008025000003000020257830
S10917DE20200A0D0000AA
S9030000FC
