S01800004144435F4F6E496E74657272757074732E73726563E8
S1130000FDC000001CC100001AC1000018C100009E
S113001016C1000014C1000012C1000010C100008C
S11300200EC100000CC100000AC1000008C100009C
S113003006C1000004C10000A8C10000D3C1000033
S1130040FEC1000029C2000054C200007FC20000AB
S1130050AAC20000D5C2000000C300002BC30000E8
S1130060EEC00000ECC00000EAC00000E8C00000E0
S1130070E6C00000E4C00000E2C00000E0C00000F0
S1130080DEC00000DCC00000DAC00000D8C0000000
S1130090D6C00000D4C00000D2C000000C94800B75
S11300A00C94B20B0C94E40B0C94160CC8C0000016
S11300B0C6C00000C4C00000C2C00000EAC4000002
S11300C015C5000040C500006BC5000096C50000C2
S11300D0C1C50000ECC5000017C6000042C6000000
S11300E06DC60000ACC00000AAC00000A8C000009B
S11300F0A6C00000A4C00000A2C00000A0C0000070
S11301009EC000009CC000009AC0000098C000007F
S113011096C0000094C0000092C000000C94B80A7D
S11301200C94EA0A0C941C0B0C944E0B88C000002F
S113013086C00000ECC2000017C3000042C30000E8
S11301406DC3000098C30000C3C30000EEC30000E9
S113015019C4000044C400006FC4000070C0000053
S11301606EC000006CC000006AC0000068C00000DF
S113017066C0000064C0000062C0000060C00000EF
S11301805EC000005CC000005AC0000058C00000FF
S113019056C0000054C0000052C0000050C000000F
S11301A04EC000004CC000004AC0000048C000001F
S11301B032C600005DC6000088C60000B3C6000059
S11301C0DEC6000009C700003AC0000038C00000C5
S11301D036C0000034C0000032C0000030C000004F
S11301E02EC000002CC000002AC0000028C000005F
S11301F026C0000024C0000022C0000011241FBE3D
S1130200CFEFCDBFDFE5DEBF00E00CBF10E2A0E022
S1130210B0E2EAE5F1E200E00BBF02C007900D9204
S1130220AE30B107D9F720E2AEE0B0E201C01D92D2
S1130230A237B207E1F70E94350E0C94AB10E0CE62
S1130240CF93DF931F92CDB7DEB78091602090915A
S11302506120E0915820F0915920BE016F5F7F4FDB
S113026019958981082E000C990B0F90DF91CF917D
S11302700895CF93DF931F92CDB7DEB72FB72983AD
S1130280F8944981282F392F211582E0380729F461
S113029060935C2070935D2007C02034324021F4C9
S11302A060935A2070935B204FBF0F90DF91CF91E2
S11302B00895811522E0920769F480910F2091E05E
S11302C0980F90930F20811114C062E081E00C9488
S11302D0E80D08958034924061F480910E2091E0FD
S11302E0980F90930E20811104C062E082E00C9478
S11302F0E80D0895811522E0920761F480910F20A2
S1130300815080930F20811113C062E081E00C942E
S1130310FE0D08958034924059F480910E2081504E
S113032080930E20811104C062E082E00C94FE0DE3
S11303300895EF92FF921F93CF93DF931F921F9222
S1130340CDB7DEB77C018FB78983F8941981C701D3
S1130350B0DFF7018081816080831FBF80916320BB
S11303608F3F09F4FFCF8FB78A83F8949A81E2E62E
S1130370F0E281818F5F81839FBF0F900F90DF91A7
S1130380CF911F91FF90EF9008951F920F920FB697
S11303900F9211240BB60F922F933F934F935F93B9
S11303A06F937F938F939F93AF93BF93EF93FF9339
S11303B0E0915620F0915720309709F01995FF915C
S11303C0EF91BF91AF919F918F917F916F915F91C9
S11303D04F913F912F910F900BBE0F900FBE0F9036
S11303E01F9018951F920F920FB60F9211240BB6FF
S11303F00F922F933F934F935F936F937F938F93BA
S11304009F93AF93BF93EF93FF93E0915420F091A8
S11304105520309709F01995FF91EF91BF91AF9155
S11304209F918F917F916F915F914F913F912F9108
S11304300F900BBE0F900FBE0F901F9018951F9238
S11304400F920FB60F9211240BB60F922F933F9376
S11304504F935F936F937F938F939F93AF93BF93C8
S1130460EF93FF93E0915220F0915320309709F0DD
S11304701995FF91EF91BF91AF919F918F917F91CA
S11304806F915F914F913F912F910F900BBE0F9001
S11304900FBE0F901F9018951F920F920FB60F92D8
S11304A011240BB60F922F933F934F935F936F9347
S11304B07F938F939F93AF93BF93EF93FF93E091B9
S11304C05020F0915120309709F01995FF91EF9148
S11304D0BF91AF919F918F917F916F915F914F9158
S11304E03F912F910F900BBE0F900FBE0F901F9056
S11304F018951F920F920FB60F9211240BB60F92FC
S11305002F933F934F935F936F937F938F939F9317
S1130510AF93BF93EF93FF93E0914E20F0914F2060
S1130520309709F01995FF91EF91BF91AF919F9189
S11305308F917F916F915F914F913F912F910F9088
S11305400BBE0F900FBE0F901F9018951F920F9225
S11305500FB60F9211240BB60F922F933F934F9324
S11305605F936F937F938F939F93AF93BF93EF9317
S1130570FF93E0914C20F0914D20309709F01995AC
S1130580FF91EF91BF91AF919F918F917F916F9167
S11305905F914F913F912F910F900BBE0F900FBE23
S11305A00F901F9018951F920F920FB60F9211245F
S11305B00BB60F922F933F934F935F936F937F9359
S11305C08F939F93AF93BF93EF93FF93E0914A2050
S11305D0F0914B20309709F01995FF91EF91BF915D
S11305E0AF919F918F917F916F915F914F913F91C7
S11305F02F910F900BBE0F900FBE0F901F90189568
S11306001F920F920FB60F9211240BB60F922F93D5
S11306103F934F935F936F937F938F939F93AF9386
S1130620BF93EF93FF93E0914820F09149203097D6
S113063009F01995FF91EF91BF91AF919F918F911F
S11306407F916F915F914F913F912F910F900BBECE
S11306500F900FBE0F901F9018951F920F920FB618
S11306600F9211240BB60F922F933F934F935F93E6
S11306706F937F938F939F93AF93BF93EF93FF9366
S1130680E0914620F0914720309709F01995FF91A9
S1130690EF91BF91AF919F918F917F916F915F91F6
S11306A04F913F912F910F900BBE0F900FBE0F9063
S11306B01F9018951F920F920FB60F9211240BB62C
S11306C00F922F933F934F935F936F937F938F93E7
S11306D09F93AF93BF93EF93FF93E0914420F091E6
S11306E04520309709F01995FF91EF91BF91AF9193
S11306F09F918F917F916F915F914F913F912F9136
S11307000F900BBE0F900FBE0F901F9018951F9265
S11307100F920FB60F9211240BB60F922F933F93A3
S11307204F935F936F937F938F939F93AF93BF93F5
S1130730EF93FF93E0914220F0914320309709F02A
S11307401995FF91EF91BF91AF919F918F917F91F7
S11307506F915F914F913F912F910F900BBE0F902E
S11307600FBE0F901F9018951F920F920FB60F9205
S113077011240BB60F922F933F934F935F936F9374
S11307807F938F939F93AF93BF93EF93FF93E091E6
S11307904020F0914120309709F01995FF91EF9195
S11307A0BF91AF919F918F917F916F915F914F9185
S11307B03F912F910F900BBE0F900FBE0F901F9083
S11307C018951F920F920FB60F9211240BB60F9229
S11307D02F933F934F935F936F937F938F939F9345
S11307E0AF93BF93EF93FF93E0913E20F0913F20AE
S11307F0309709F01995FF91EF91BF91AF919F91B7
S11308008F917F916F915F914F913F912F910F90B5
S11308100BBE0F900FBE0F901F9018951F920F9252
S11308200FB60F9211240BB60F922F933F934F9351
S11308305F936F937F938F939F93AF93BF93EF9344
S1130840FF93E0913C20F0913D20309709F01995F9
S1130850FF91EF91BF91AF919F918F917F916F9194
S11308605F914F913F912F910F900BBE0F900FBE50
S11308700F901F9018951F920F920FB60F9211248C
S11308800BB60F922F933F934F935F936F937F9386
S11308908F939F93AF93BF93EF93FF93E0913A208D
S11308A0F0913B20309709F01995FF91EF91BF919A
S11308B0AF919F918F917F916F915F914F913F91F4
S11308C02F910F900BBE0F900FBE0F901F90189595
S11308D01F920F920FB60F9211240BB60F922F9303
S11308E03F934F935F936F937F938F939F93AF93B4
S11308F0BF93EF93FF93E0913820F0913920309724
S113090009F01995FF91EF91BF91AF919F918F914C
S11309107F916F915F914F913F912F910F900BBEFB
S11309200F900FBE0F901F9018951F920F920FB645
S11309300F9211240BB60F922F933F934F935F9313
S11309406F937F938F939F93AF93BF93EF93FF9393
S1130950E0913620F0913720309709F01995FF91F6
S1130960EF91BF91AF919F918F917F916F915F9123
S11309704F913F912F910F900BBE0F900FBE0F9090
S11309801F9018951F920F920FB60F9211240BB659
S11309900F922F933F934F935F936F937F938F9314
S11309A09F93AF93BF93EF93FF93E0913420F09123
S11309B03520309709F01995FF91EF91BF91AF91D0
S11309C09F918F917F916F915F914F913F912F9163
S11309D00F900BBE0F900FBE0F901F9018951F9293
S11309E00F920FB60F9211240BB60F922F933F93D1
S11309F04F935F936F937F938F939F93AF93BF9323
S1130A00EF93FF93E0913220F0913320309709F077
S1130A101995FF91EF91BF91AF919F918F917F9124
S1130A206F915F914F913F912F910F900BBE0F905B
S1130A300FBE0F901F9018951F920F920FB60F9232
S1130A4011240BB60F922F933F934F935F936F93A1
S1130A507F938F939F93AF93BF93EF93FF93E09113
S1130A603020F0913120309709F01995FF91EF91E2
S1130A70BF91AF919F918F917F916F915F914F91B2
S1130A803F912F910F900BBE0F900FBE0F901F90B0
S1130A9018951F920F920FB60F9211240BB60F9256
S1130AA02F933F934F935F936F937F938F939F9372
S1130AB0AF93BF93EF93FF93E0912E20F0912F20FB
S1130AC0309709F01995FF91EF91BF91AF919F91E4
S1130AD08F917F916F915F914F913F912F910F90E3
S1130AE00BBE0F900FBE0F901F9018951F920F9280
S1130AF00FB60F9211240BB60F922F933F934F937F
S1130B005F936F937F938F939F93AF93BF93EF9371
S1130B10FF93E0912C20F0912D20309709F0199546
S1130B20FF91EF91BF91AF919F918F917F916F91C1
S1130B305F914F913F912F910F900BBE0F900FBE7D
S1130B400F901F9018951F920F920FB60F921124B9
S1130B500BB60F922F933F934F935F936F937F93B3
S1130B608F939F93AF93BF93EF93FF93E0912A20CA
S1130B70F0912B20309709F01995FF91EF91BF91D7
S1130B80AF919F918F917F916F915F914F913F9121
S1130B902F910F900BBE0F900FBE0F901F901895C2
S1130BA01F920F920FB60F9211240BB60F922F9330
S1130BB03F934F935F936F937F938F939F93AF93E1
S1130BC0BF93EF93FF93E0912820F0912920309771
S1130BD009F01995FF91EF91BF91AF919F918F917A
S1130BE07F916F915F914F913F912F910F900BBE29
S1130BF00F900FBE0F901F9018951F920F920FB673
S1130C000F9211240BB60F922F933F934F935F9340
S1130C106F937F938F939F93AF93BF93EF93FF93C0
S1130C20E0912620F0912720309709F01995FF9143
S1130C30EF91BF91AF919F918F917F916F915F9150
S1130C404F913F912F910F900BBE0F900FBE0F90BD
S1130C501F9018951F920F920FB60F9211240BB686
S1130C600F922F933F934F935F936F937F938F9341
S1130C709F93AF93BF93EF93FF93E0912420F09160
S1130C802520309709F01995FF91EF91BF91AF910D
S1130C909F918F917F916F915F914F913F912F9190
S1130CA00F900BBE0F900FBE0F901F9018951F92C0
S1130CB00F920FB60F9211240BB60F922F933F93FE
S1130CC04F935F936F937F938F939F93AF93BF9350
S1130CD0EF93FF93E0912220F0912320309709F0C5
S1130CE01995FF91EF91BF91AF919F918F917F9152
S1130CF06F915F914F913F912F910F900BBE0F9089
S1130D000FBE0F901F9018951F920F920FB60F925F
S1130D1011240BB60F922F933F934F935F936F93CE
S1130D207F938F939F93AF93BF93EF93FF93E09140
S1130D302020F0912120309709F01995FF91EF912F
S1130D40BF91AF919F918F917F916F915F914F91DF
S1130D503F912F910F900BBE0F900FBE0F901F90DD
S1130D6018951F920F920FB60F9211240BB60F9283
S1130D702F933F934F935F936F937F938F939F939F
S1130D80AF93BF93EF93FF93E0911E20F0911F2048
S1130D90309709F01995FF91EF91BF91AF919F9111
S1130DA08F917F916F915F914F913F912F910F9010
S1130DB00BBE0F900FBE0F901F9018951F920F92AD
S1130DC00FB60F9211240BB60F922F933F934F93AC
S1130DD05F936F937F938F939F93AF93BF93EF939F
S1130DE0FF93E0911C20F0911D20309709F0199594
S1130DF0FF91EF91BF91AF919F918F917F916F91EF
S1130E005F914F913F912F910F900BBE0F900FBEAA
S1130E100F901F9018951F920F920FB60F921124E6
S1130E200BB60F922F933F934F935F936F937F93E0
S1130E308F939F93AF93BF93EF93FF93E0911A2007
S1130E40F0911B20309709F01995FF91EF91BF9114
S1130E50AF919F918F917F916F915F914F913F914E
S1130E602F910F900BBE0F900FBE0F901F901895EF
S1130E701F920F920FB60F9211240BB60F922F935D
S1130E803F934F935F936F937F938F939F93AF930E
S1130E90BF93EF93FF93E0911820F09119203097BE
S1130EA009F01995FF91EF91BF91AF919F918F91A7
S1130EB07F916F915F914F913F912F910F900BBE56
S1130EC00F900FBE0F901F9018951F920F920FB6A0
S1130ED00F9211240BB60F922F933F934F935F936E
S1130EE06F937F938F939F93AF93BF93EF93FF93EE
S1130EF0E0911620F0911720309709F01995FF9191
S1130F00EF91BF91AF919F918F917F916F915F917D
S1130F104F913F912F910F900BBE0F900FBE0F90EA
S1130F201F9018951F920F920FB60F9211240BB6B3
S1130F300F922F933F934F935F936F937F938F936E
S1130F409F93AF93BF93EF93FF93E0911420F0919D
S1130F501520309709F01995FF91EF91BF91AF914A
S1130F609F918F917F916F915F914F913F912F91BD
S1130F700F900BBE0F900FBE0F901F9018951F92ED
S1130F800F920FB60F9211240BB60F922F933F932B
S1130F904F935F936F937F938F939F93AF93BF937D
S1130FA0EF93FF93E0911220F0911320309709F012
S1130FB01995FF91EF91BF91AF919F918F917F917F
S1130FC06F915F914F913F912F910F900BBE0F90B6
S1130FD00FBE0F901F9018951F920F920FB60F928D
S1130FE011240BB60F922F933F934F935F936F93FC
S1130FF07F938F939F93AF93BF93EF93FF93E0916E
S11310001020F0911120309709F01995FF91EF917C
S1131010BF91AF919F918F917F916F915F914F910C
S11310203F912F910F900BBE0F900FBE0F901F900A
S113103018951F93CF93DF931F921F92CDB7DEB7FE
S11310402FB72A83F8941A81282F392F211588E085
S1131050380739F461E083E0BBD564E083E0B8D5B8
S113106043C0203488E0380739F462E083E0B0D527
S113107064E083E0ADD538C0211589E0380739F440
S113108061E084E0A5D564E084E0A2D52DC02034DD
S113109089E0380739F462E084E09AD564E084E0BA
S11310A097D522C021158AE0380739F461E085E03C
S11310B08FD564E085E08CD517C020348AE03807EA
S11310C039F462E085E084D564E085E081D50CC024
S11310D021153B4039F461E086E07AD564E086E08E
S11310E077D502C01FBF10C0809163208F3F09F4E1
S11310F0FFCF8FB78983F8949981E2E6F0E281818A
S11311008F5F81839FBF1FBF0F900F90DF91CF919F
S11311101F910895FC01918195FFFDCF608380E0CC
S113112090E00895FC0191819923ECF78081089562
S11311304F925F926F927F928F929F92AF92BF92E3
S1131140EF92FF920F931F93CF937C014A015B01AF
S113115028013901FC01848182FF16C0D901C8012C
S1131160689412F8B695A795979587951694D1F734
S1131170B901A801032E36E17695679557954795F1
S11311803A95D1F7302D15C0D901C801689413F8E8
S1131190B695A795979587951694D1F7B901A801A7
S11311A0032E37E176956795579547953A95D1F78C
S11311B0302D88159905AA05BB0508F4A2C084162C
S11311C09506A606B70608F49EC0F701848182FD41
S11311D004C0880C991CAA1CBB1CC301B201A50144
S11311E09401CFD52F3F31054105510508F48DC039
S11311F08FEF90E0A0E0B0E0C9EF05C028173907F1
S11312004A075B0758F0880F991FAA1FBB1FCD3FE1
S11312100CF48160CF5FC73089F74DC0CC230CF04C
S11312204AC0D501C401880F991FAA1FBB1F880F8C
S1131230991FAA1FBB1F880F991FAA1FBB1F481AFB
S1131240590A6A0A7B0ACE3FECF48DEF9FEF8C1BA0
S11312509109C7FD939504C0440C551C661C771C6A
S11312608A95D2F7D501C401B695A7959795879528
S1131270BC01CD01640D751D861D971DA50194014A
S113128080D535C083E08C0FA501940104C0220FE2
S1131290331F441F551F8A95D2F7DA01C901B69549
S11312A0A79597958795BC01CD01640D751D861D85
S11312B0971D67D51CC083E08C0FA501940104C061
S11312C0220F331F441F551F8A95D2F7DA01C90133
S11312D0B695A79597958795BC01CD01640D751DAD
S11312E0861D971D4ED52150310941095109832F7F
S11312F08F70C295C07FC82BF701C783268381E016
S113130018C080E016C080E014C0D501C401880F65
S1131310991FAA1FBB1F880F991FAA1FBB1F880FE5
S1131320991FAA1FBB1F481A590A6A0A7B0AC9EFE8
S11313308CCFCF911F910F91FF90EF90BF90AF9002
S11313409F908F907F906F905F904F9008950F9330
S11313501F93CF93DF93EC018B01009709F4E6C050
S1131360803C910521F460E180E032D4DFC0C038D4
S113137081E0D80721F462E080E02AD4D7C0C11507
S1131380E1E0DE0721F461E080E022D4CFC0C03880
S1131390F3E0DF0721F461E081E01AD4C7C0C0396B
S11313A083E0D80721F461E082E012D4BFC0C11504
S11313B0E2E0DE0721F462E081E00AD4B7C0C03481
S11313C0F2E0DF0721F462E082E002D4AFC0C03271
S11313D083E0D80721F464E082E0FAD3A7C0C11502
S11313E0E8E0DE0721F461E083E0F2D39FC0C11599
S11313F0F9E0DF0721F461E084E0EAD397C0C11586
S11314008AE0D80721F461E085E0E2D38FC0C115FA
S1131410EBE0DE0721F461E086E0DAD387C0C03474
S1131420F8E0DF0721F462E083E0D2D37FC0C03468
S113143089E0D80721F462E084E0CAD377C0C034DD
S1131440EAE0DE0721F462E085E0C2D36FC0C03970
S1131450F8E0DF0721F464E083E0BAD367C0C03961
S113146089E0D80721F464E084E0B2D35FC0C039D6
S1131470EAE0DE0721F464E085E0AAD357C0C0396E
S1131480FBE0DF0721F464E086E0A2D34FC0C03C58
S113149088E0D80721F468E083E09AD347C0C03CD1
S11314A0E9E0DE0721F468E084E092D33FC0C03A6B
S11314B0F8E0DF0721F460E183E08AD337C0C03A63
S11314C089E0D80721F460E184E082D32FC0C03AD8
S11314D0EAE0DE0721F460E185E07AD327C0C03A70
S11314E0FBE0DF0721F460E186E072D31FC0C03B5C
S11314F088E0D80721F460E283E06AD317C0C03BD8
S1131500E9E0DE0721F460E284E062D30FC0C03872
S1131510F4E0DF0721F460E483E05AD307C0C03A63
S113152084E0D80719F460E485E052D38D818F7389
S11315308D83F80195818481892B9681911198E09E
S1131540892B8D83F801408151816281738100E090
S11315501CE62CED32E0CE01EBDD9C8198609C838F
S11315609C8190619C83DF91CF911F910F9108958D
S11315701F920F920FB60F9211240BB60F922F9356
S11315803F934F935F936F937F938F939F93AF9307
S1131590BF93EF93FF934091240250912502E09171
S11315A05C20F0915D2061E080E092E01995FF916C
S11315B0EF91BF91AF919F918F917F916F915F91C7
S11315C04F913F912F910F900BBE0F900FBE0F9034
S11315D01F9018951F920F920FB60F9211240BB6FD
S11315E00F922F933F934F935F936F937F938F93B8
S11315F09F93AF93BF93EF93FF9340912C0250912D
S11316002D02E0915C20F0915D2062E080E092E0A8
S11316101995FF91EF91BF91AF919F918F917F9118
S11316206F915F914F913F912F910F900BBE0F904F
S11316300FBE0F901F9018951F920F920FB60F9226
S113164011240BB60F922F933F934F935F936F9395
S11316507F938F939F93AF93BF93EF93FF934091A7
S1131660340250913502E0915C20F0915D2064E0F9
S113167080E092E01995FF91EF91BF91AF919F9116
S11316808F917F916F915F914F913F912F910F9027
S11316900BBE0F900FBE0F901F9018951F920F92C4
S11316A00FB60F9211240BB60F922F933F934F93C3
S11316B05F936F937F938F939F93AF93BF93EF93B6
S11316C0FF9340913C0250913D02E0915C20F091E7
S11316D05D2068E080E092E01995FF91EF91BF9161
S11316E0AF919F918F917F916F915F914F913F91B6
S11316F02F910F900BBE0F900FBE0F901F90189557
S11317001F920F920FB60F9211240BB60F922F93C4
S11317103F934F935F936F937F938F939F93AF9375
S1131720BF93EF93FF934091640250916502E0915F
S11317305A20F0915B2061E080E492E01995FF91DA
S1131740EF91BF91AF919F918F917F916F915F9135
S11317504F913F912F910F900BBE0F900FBE0F90A2
S11317601F9018951F920F920FB60F9211240BB66B
S11317700F922F933F934F935F936F937F938F9326
S11317809F93AF93BF93EF93FF9340916C0250915B
S11317906D02E0915A20F0915B2062E080E492E0D7
S11317A01995FF91EF91BF91AF919F918F917F9187
S11317B06F915F914F913F912F910F900BBE0F90BE
S11317C00FBE0F901F9018951F920F920FB60F9295
S11317D011240BB60F922F933F934F935F936F9304
S11317E07F938F939F93AF93BF93EF93FF93409116
S11317F0740250917502E0915A20F0915B2064E0EC
S113180080E492E01995FF91EF91BF91AF919F9180
S11318108F917F916F915F914F913F912F910F9095
S11318200BBE0F900FBE0F901F9018951F920F9232
S11318300FB60F9211240BB60F922F933F934F9331
S11318405F936F937F938F939F93AF93BF93EF9324
S1131850FF9340917C0250917D02E0915A20F091D7
S11318605B2068E080E492E01995FF91EF91BF91CD
S1131870AF919F918F917F916F915F914F913F9124
S11318802F910F900BBE0F900FBE0F901F901895C5
S1131890BF92CF92DF92EF92FF920F931F93CF9359
S11318A0DF931F92CDB7DEB78C017B01811522E057
S11318B0920771F461E270E082E0B5D1C82ED12CB8
S11318C060E270E082E0AFD1DC2CCC24C82A10C0E6
S11318D080349240D1F565E270E082E0A4D1C82E54
S11318E0D12C64E270E082E09ED1DC2CCC24C82AA6
S11318F08FB78983F894B980C8010E945901F8010F
S1131900808192E09083C486D586F7012581368153
S1131910F801208F318FF7019281F8019283F7014A
S11319209481F8019483F7019381F8019383F7017B
S11319309181F80191838170F7019081892BF801DD
S11319408083C8010E947A01BFBE0F90DF91CF91BE
S11319501F910F91FF90EF90DF90CF90BF9008956B
S1131960DF92EF92FF920F931F93CF93DF931F9217
S1131970CDB7DEB78C017B018FB78983F894D9800A
S1131980C8010E945901F8018081807CF70180839D
S1131990F801808D918DF70185839683F80182810A
S11319A0F7018283F8018481F7018483F80183813C
S11319B0F7018383F8018181F7018183C8010E94C3
S11319C07A01DFBE0F90DF91CF911F910F91FF90AD
S11319D0EF90DF900895AF92BF92CF92DF92EF9293
S11319E0FF920F931F93CF93DF931F92CDB7DEB770
S11319F06C01B62E7A01862F837029F4962F969562
S1131A00969582E002C0962F80E090FF8F5F86015A
S1131A10005E1F4F98E0899F000D111D11248FB7A0
S1131A208983F894A980C6010E945901F701808135
S1131A30F8018083F7018281F8018283F7018181B3
S1131A40F8018183B0FE04C0F7018381F801868325
S1131A50C6010E947A01AFBE0F90DF91CF911F9112
S1131A600F91FF90EF90DF90CF90BF90AF900895CB
S1131A70AF92BF92CF92DF92EF92FF920F931F9398
S1131A80CF93DF931F92CDB7DEB76C01B62E7A01E8
S1131A90862F837029F4962F9695969582E002C03E
S1131AA0962F80E090FF8F5F8601005E1F4F98E0C5
S1131AB0899F000D111D11248FB78983F894A98083
S1131AC0C6010E945901F8018081F7018083F80161
S1131AD08281F7018283F8018181F7018183B0FE5D
S1131AE004C0F8018681F7018383C6010E947A014C
S1131AF0AFBE0F90DF91CF911F910F91FF90EF90A8
S1131B00DF90CF90BF90AF900895682F80916020B0
S1131B1090916120E0915E20F0915F2019959923C6
S1131B201CF081E090E008958FEF9FEF0895CF932C
S1131B30DF9300D000D0CDB7DEB78FEF8093700075
S1131B40809371008093720080937300809374007B
S1131B5080937500809376006CE170E082E063D03E
S1131B608A836DE170E082E05ED0898389819A8105
S1131B70019621F480E493E289839A8389819A818E
S1131B808B839C83E0E6F0E082838C8183838FB730
S1131B908E83F8949E81E0E5F0E08081826080830A
S1131BA09FBF818181FFFDCF61E080E490E045D05B
S1131BB08FB78D83F8949D81E0E5F0E080818E7F7E
S1131BC080839FBF2696CDBFDEBFDF91CF9108955E
S1131BD0CF93DF931F92CDB7DEB79FB79983F89465
S1131BE09981E82FF0E0E059FF4F609580816823E8
S1131BF060839FBF0F90DF91CF910895CF93DF93C0
S1131C001F92CDB7DEB79FB79983F8949981E82FD7
S1131C10F0E0E059FF4F8081682B60839FBF0F90F5
S1131C20DF91CF9108954091CA01E62FF72F809359
S1131C30CA0184914093CA0108951BBEFC0128ED9A
S1131C4024BF6083089560916A2070916B20842F73
S1131C5090E003C10895CF93DF93EB0163DA8883A7
S1131C60DF91CF91089556CA0895CF93DF93CDB7EE
S1131C70DEB72B97CDBFDEBF789487E08093A200B8
S1131C8056DF62E080E0A4DF80EC8093800180E096
S1131C9098E0CFD9E0E0F8E08181887F81838AE011
S1131CA090E086A397A38081807F85608083BE01B6
S1131CB06F5F7F4F80E092E053DEAE01485F5F4F7D
S1131CC061E080E092E0D4DE8A819B819F7890621B
S1131CD09B83817E84608A8381E08C8395E09D83ED
S1131CE0888718E019878A858C7F81608A8763E2F8
S1131CF07EE080E092E00E943901BE016F5F7F4F79
S1131D0080E092E0C5DDAE01485F5F4F61E080E0B6
S1131D1092E061DE80EA9AE08093602090936120F3
S1131D2083E39EE080935E2090935F208BE29EE0AD
S1131D308093582090935920E6E0F0E284818D83CB
S1131D4085818E8386818F8380819181A281B381F5
S1131D5089839A83AB83BC8360E185E039DFBE016C
S1131D606F5F7F4F80EA9AE0F2DA60E271E085E823
S1131D709DE029D01093810680E092E00E949901B1
S1131D80FFCFA1E21A2EAA1BBB1BFD010DC0AA1F87
S1131D90BB1FEE1FFF1FA217B307E407F50720F0D0
S1131DA0A21BB30BE40BF50B661F771F881F991F4B
S1131DB01A9469F760957095809590959B01AC0194
S1131DC0BD01CF0108950F931F93CF93DF93009725
S1131DD031F46115710519F480E090E039C08B018C
S1131DE0EC016EE070E081E090E073D0FC01892B9F
S1131DF099F380E883830115110571F00287138735
S1131E0081E883838091682090916920892B21F453
S1131E10E0936820F09369202097C9F0C087D187A8
S1131E2083818260838380916A2090916B20892BC7
S1131E3071F4E0936A20F0936B2080916C20909170
S1131E406D20892B21F4E0936C20F0936D20CF0159
S1131E50DF91CF911F910F9108950F931F93CF930B
S1131E60DF93FB01238121FD03C08FEF9FEF2CC083
S1131E7022FF16C0468157812481358142175307BA
S1131E8044F4A081B1819D012F5F3F4F20833183B2
S1131E908C93268137812F5F3F4F2683378314C06D
S1131EA08B01EC01FB010084F185E02D1995892B50
S1131EB0E1F6D80116968D919C9117970196169686
S1131EC08D939C931797CE01DF91CF911F910F9122
S1131ED008950F931F93CF93DF93869F8001879F6D
S1131EE0100D969F100D1124C8010DD0EC01009720
S1131EF021F0A80160E070E027D1CE01DF91CF91FD
S1131F001F910F9108950F931F93CF93DF93823006
S1131F10910510F482E090E0E0917020F09171203E
S1131F2020E030E0A0E0B0E0309719F14081518129
S1131F300281138148175907C8F08417950769F47B
S1131F40109731F012960C93129713961C9327C096
S1131F50009370201093712022C02115310519F0CF
S1131F604217530718F49A01BD01EF01DF01F8018C
S1131F70DBCF21153105F9F0281B390B243031054D
S1131F8080F48A819B816115710521F0FB018283B4
S1131F90938304C08093702090937120FE01329645
S1131FA044C0FE01E20FF31F819391932250310943
S1131FB0288339833AC020916E2030916F20232BDF
S1131FC041F4209102203091032020936E2030931D
S1131FD06F2020910020309101202115310541F41A
S1131FE02DB73EB74091042050910520241B350B9A
S1131FF0E0916E20F0916F20E217F307A0F42E1BFE
S11320003F0B2817390778F0AC014E5F5F4F241758
S1132010350748F04E0F5F1F40936E2050936F209A
S11320208193919302C0E0E0F0E0CF01DF91CF9182
S11320301F910F910895CF93DF93009709F481C006
S1132040FC01329712821382A0917020B09171200A
S1132050109781F420813181820F931F20916E208B
S113206030916F202817390751F5E0936E20F093D3
S11320706F2067C0ED0120E030E0CE17DF0740F4A9
S11320804A815B819E0141155105F1F0EA01F5CFCA
S1132090C283D38340815181840F951FC817D90708
S11320A059F488819981840F951F029680839183C6
S11320B08A819B81828393832115310529F4E093DE
S11320C07020F09371203DC0E901EA83FB834991BC
S11320D05991C40FD51FEC17FD0761F480819181DC
S11320E0840F951F0296E9018883998382819381E5
S11320F08A839B83E0E0F0E012968D919C91139784
S1132100009719F0FD01DC01F7CF8D919C91119797
S11321109D012E5F3F4F820F931F20916E203091BF
S11321206F202817390769F4309729F4109270202A
S11321301092712002C012821382A0936E20B09379
S11321406F20DF91CF910895DC0101C06D93415060
S10D21505040E0F70895F894FFCF23
S111215A00007220200000100E0003000000A0
S9030000FC
